:020000040800F2
:1000000030040020350100083D0100083F010008D0
:1000100041010008430100084501000800000000FC
:100020000000000000000000000000004701000880
:1000300049010008000000004B0100084D010008C4
:100040004F0100084F0100084F0100084F01000850
:100050004F0100084F0100084F0100084F01000840
:100060004F0100084F0100084F0100084F01000830
:100070004F0100084F0100084F0100084F01000820
:100080004F0100084F0100084F0100080000000068
:100090000000000000000000000000004F01000808
:1000A0004F0100084F0100084F0100084F010008F0
:1000B0004F0100084F0100084F0100084F010008E0
:1000C0004F0100084F0100084F0100084F010008D0
:1000D0004F010008250500084F0100084F010008E6
:1000E0004F0100084F0100084F0100080000000008
:1000F0000000000000000000000000000000000000
:1001000000000000000000000000000000000000EF
:1001100000000000000000004F0100084F0100082F
:10012000DFF80CD000F018F80048004789080008F4
:10013000300400200648804706480047FEE7FEE7F7
:10014000FEE7FEE7FEE7FEE7FEE7FEE7FEE7FEE787
:10015000C104000821010008064C074D06E0E068D4
:1001600040F0010394E8070098471034AC42F6D3FE
:10017000FFF7DAFFA4080008C40800082DE9F041E1
:10018000024600250026002000230024002791F8C5
:1001900003C00CF00F0591F803C00CF0100CBCF17B
:1001A000000F03D091F802C04CEA050591F800C099
:1001B000BCF1000F31D0146800202BE04FF0010C8F
:1001C0000CFA00F3B1F800C00CEA03069E4220D1FD
:1001D00083004FF00F0C0CFA03F7BC4305FA03FC45
:1001E0004CEA040491F803C0BCF1280F06D14FF08B
:1001F000010C0CFA00FCC2F814C00AE091F803C02C
:10020000BCF1480F05D14FF0010C0CFA00FCC2F80C
:1002100010C0401C0828D1D31460B1F800C0BCF154
:10022000FF0F34DD546800202EE000F1080C4FF081
:10023000010808FA0CF3B1F800C00CEA03069E426C
:1002400021D183004FF00F0C0CFA03F7BC4305FAE1
:1002500003FC4CEA040491F803C0BCF1280F05D15B
:1002600000F1080C08FA0CF8C2F8148091F803C0E9
:10027000BCF1480F07D100F1080C4FF0010808FA53
:100280000CF8C2F81080401C0828CED35460BDE89A
:10029000F0810AB1016100E04161704770B5002151
:1002A00000230F22C47804B3154C246804F4E064DE
:1002B000C4F5E064210AC1F10403CA40447804FA99
:1002C00003F184781440214309010E4C0678A155AE
:1002D000047804F01F050124AC4005786D11AD00D1
:1002E00005F1E025C5F8004109E0047804F01F0598
:1002F0000124AC40044D0678761145F8264070BDC7
:100300000CED00E000E400E080E100E029B1064AE5
:1003100092690243044B9A6104E0034A9269824362
:10032000014B9A61704700000010024070B5002137
:1003300000230024002200252C4E766806F00C01D4
:1003400021B1042905D0082921D105E0284E0660F5
:1003500020E0274E06601DE0244E766806F47013F8
:10036000224E766806F48034022606EB93431CB9CD
:10037000204E5E43066009E01C4EF66A06F00F064A
:10038000751C1B4EB6FBF5F65E43066002E0184E88
:10039000066000BF00BF154E766806F0F00109093F
:1003A000154E725C0668D6404660104E766806F4BC
:1003B000E061090A104E725C4668D64086600B4EBA
:1003C000766806F46051C90A0B4E725C4668D640E6
:1003D000C660064E766806F44041890B074E725C93
:1003E000C668B6FBF2F6066170BD00000010024060
:1003F00000127A0000093D000900002019000020C9
:1004000010B500F001F810BD0CB50020019000906F
:100410002A48006840F480302849086000BF274817
:10042000006800F4003000900198401C0190009892
:1004300018B90198B0F5A06FF1D12048006800F418
:10044000003010B10120009001E0002000900098E1
:10045000012831D119484068184948600846406869
:1004600048600846406848600846406820F47C10B0
:1004700048600846406840F49810486008460068A4
:1004800040F08070086000BF0C48006800F0007009
:100490000028F9D00948406820F003000749486067
:1004A0000846406840F00200486000BF03484068CA
:1004B00000F00C000828F9D10CBD0000001002402B
:1004C00010B51448006840F0010012490860084661
:1004D0004068114908400F494860084600680F49C4
:1004E00008400C4908600846006820F48020086035
:1004F0000846406820F4FE0048604FF41F00886002
:100500000020C862FFF77CFF4FF0006004490860DC
:1005100010BD0000001002400000FFF8FFFFF6FED3
:1005200008ED00E010B540F22551264800F062F8D1
:10053000002845D02348001D0088C4B2472C2BD189
:10054000214800780C2827DA20481F4909784454AC
:100550001D480078401C1C490870012251021C48AB
:10056000FFF797FE00201B49086011E000201A49A0
:10057000086004E018480068401C174908601648E5
:1005800000680A28F6DB13480068401C114908601F
:10059000104800686428E9DB4D2C10D10A48007827
:1005A0000C280CDA0020084908700849054800F0BA
:1005B000E1F800224FF400710548FFF76AFE00BF22
:1005C00010BD00000038014008000020200000207D
:1005D00000100140000000200400002021B18289A9
:1005E00042F40052828104E082894DF6FF731A4082
:1005F0008281704770B50246002400230025002048
:1006000040F66A16B14200D100BFC1F3421501F0B5
:100610001F03012606FA03F3012D02D19689334008
:1006200006E0022D02D1168A334001E0968A33405B
:100630000C12012606FA04F41688344013B10CB1EA
:10064000012000E0002070BDF0B503460024002624
:100650000025002040F66A17B94200D100BF1846B5
:10066000C1F3421401F01F06012707FA06F5012C19
:1006700001D10C3004E0022C01D1103000E0143024
:100680001AB107682F43076002E00768AF430760AD
:10069000F0BD00002DE9F04786B005460E46002467
:1006A000A24600BFA1460027B08900B100BF2F4677
:1006B0002C8A4CF6FF700440F08804432C82AC89ED
:1006C0004EF6F3100440B08831890843718908431D
:1006D0000443AC81AC8A4FF6FF400440B089044328
:1006E000AC8201A8FFF722FE1F48874202D1DDF845
:1006F00010A001E0DDF80CA0A88900F4004040B192
:100700000AEBCA0000EB0A1031684900B0FBF1F8AF
:1007100007E00AEBCA0000EB0A1031688900B0FB61
:10072000F1F86420B8FBF0F004012009642101FB1A
:100730001089A88900F4004040B1322000EBC900C4
:10074000B0FBF1F000F00700044308E0322000EBBA
:1007500009106421B0FBF1F000F00F0004432C817C
:1007600006B0BDE8F087000000380140C1F3080280
:100770008280704770B505460C460BE000BF2888A4
:1007800000F040000028FAD021782846FFF7EEFF5D
:1007900014F8010B20780028F0D170BD02E008C8E1
:1007A000121F08C1002AFAD170477047002001E0EB
:1007B00001C1121F002AFBD17047000010B586B09E
:1007C000044601218803FFF7A1FD01211020FFF756
:1007D0009DFD4FF40070ADF8140010208DF8170047
:1007E00003208DF8160005A92448FFF7C7FC012156
:1007F0000420FFF78BFD4FF40070ADF814001820B3
:100800008DF8170003208DF8160005A91C48FFF786
:10081000B5FC4FF48060ADF8140004208DF817008B
:1008200005A91748FFF7AAFC01940020ADF80800BD
:10083000ADF80A00ADF80C00ADF810000C20ADF8D2
:100840000E0001A90F48FFF725FF012240F22551B4
:100850000C48FFF7F9FE25208DF8000000208DF8E8
:10086000020001208DF803006846FFF717FD012103
:100870000448FFF7B3FE06B010BD000000100140B1
:1008800000080140003801404FF41650FFF796FF72
:1008900003E002A10248FFF76DFFFAE74B0D0A00E3
:1008A00000380140C40800080000002020000000BB
:1008B0009C070008E4080008200000201004000045
:1008C000AC0700080000000000000000000000006D
:1008D00000010203040102030406070809020406DA
:0408E000080000000C
:0400000508000135B9
:00000001FF
