:020000040800F2
:1000000060060020A1010008A9010008AB0100085A
:10001000AD010008AF010008B101000800000000B8
:10002000000000000000000000000000B301000814
:10003000B501000800000000B7010008B901000880
:10004000BB010008BB010008BB010008BB010008A0
:10005000BB010008BB010008BB010008BB01000890
:10006000BB010008BB010008BB010008BB01000880
:10007000BB010008BB010008BB010008BB01000870
:10008000BB010008BB010008BB0100080000000024
:10009000000000000000000000000000BB0100089C
:1000A000BB010008BB010008BB010008BB01000840
:1000B000BB010008BB010008BB010008BB01000830
:1000C000BB010008BB010008BB010008BB01000820
:1000D000BB010008BB010008BB010008BB01000810
:1000E000BB010008BB010008BB01000800000000C4
:1000F0000000000000000000000000000000000000
:1001000000000000000000000000000000000000EF
:100110000000000000000000BB010008BB01000857
:1001200000F002F800F02CF80AA090E8000C8244DD
:100130008344AAF10107DA4501D100F021F8AFF2BA
:10014000090EBAE80F0013F0010F18BFFB1A43F0B5
:1001500001031847EC030000FC0300000023002407
:1001600000250026103A28BF78C1FBD8520728BFC7
:1001700030C148BF0B6070471FB51FBD10B510BD23
:1001800000F031F81146FFF7F7FF00F0AFF900F08B
:100190004FF803B4FFF7F2FF03BC00F053F8000080
:1001A0000948804709480047FEE7FEE7FEE7FEE70B
:1001B000FEE7FEE7FEE7FEE7FEE7FEE70448054947
:1001C000054A064B70470000490400082101000859
:1001D0006000002060060020600200206002002015
:1001E000704770477047754600F028F8AE46050026
:1001F0006946534620F00700854618B020B5FFF742
:10020000DDFFBDE820404FF000064FF000074FF043
:1002100000084FF0000B21F00701AC46ACE8C00924
:10022000ACE8C009ACE8C009ACE8C0098D4670472D
:100230000446AFF300802046FFF7ABFF004870474D
:100240000000002001491820ABBEFEE72600020096
:1002500070472DE9F04102460025002600200023CA
:100260000024002791F803C00CF00F0591F803C09B
:100270000CF0100CBCF1000F03D091F802C04CEA56
:10028000050591F800C0BCF1000F31D014680020C2
:100290002BE04FF0010C0CFA00F3B1F800C00CEAAF
:1002A00003069E4220D183004FF00F0C0CFA03F797
:1002B000BC4305FA03FC4CEA040491F803C0BCF10A
:1002C000280F06D14FF0010C0CFA00FCC2F814C044
:1002D0000AE091F803C0BCF1480F05D14FF0010CC2
:1002E0000CFA00FCC2F810C0401C0828D1D31460DE
:1002F000B1F800C0BCF1FF0F34DD546800202EE0DF
:1003000000F1080C4FF0010808FA0CF3B1F800C036
:100310000CEA03069E4221D183004FF00F0C0CFA29
:1003200003F7BC4305FA03FC4CEA040491F803C04C
:10033000BCF1280F05D100F1080C08FA0CF8C2F83E
:10034000148091F803C0BCF1480F07D100F1080CEC
:100350004FF0010808FA0CF8C2F81080401C082879
:10036000CED35460BDE8F08129B1064A92690243B8
:10037000044B9A6104E0034A92698243014B9A61FB
:10038000704700000010024010B500F001F810BDE9
:100390000CB50020019000902A48006840F480309D
:1003A0002849086000BF2748006800F4003000902A
:1003B0000198401C0190009818B90198B0F5A06F01
:1003C000F1D12048006800F4003010B10120009005
:1003D00001E0002000900098012831D119484068C0
:1003E00018494860084640684860084640684860C8
:1003F0000846406820F47C1048600846406840F495
:10040000981048600846006840F08070086000BF9F
:100410000C48006800F000700028F9D009484068D6
:1004200020F00300074948600846406840F0020099
:10043000486000BF0348406800F00C000828F9D16C
:100440000CBD00000010024010B51448006840F0D8
:1004500001001249086008464068114908400F49E8
:100460004860084600680F4908400C490860084683
:10047000006820F4802008600846406820F4FE00F0
:1004800048604FF41F0088600020C862FFF77CFFBF
:100490004FF000600449086010BD000000100240E9
:1004A0000000FFF8FFFFF6FE08ED00E000E0401E50
:1004B0000028FCD17047C2684A40C2607047000003
:1004C00008B501211020FFF74FFF4FF44070ADF841
:1004D000000003208DF8020010208DF8030069460B
:1004E0000148FFF7B6FE08BD00100140FFF7E8FF26
:1004F00021E04FF480711048FFF7DDFF0F48FFF750
:10050000D5FF0E48FFF7D2FF0C48FFF7CFFF0B488F
:10051000FFF7CCFF4FF400710748FFF7CCFF074807
:10052000FFF7C4FF0548FFF7C1FF0448FFF7BEFF10
:100530000248FFF7BBFFDCE70010014020A10700E5
:100540005005000800000020600600005C01000863
:04000005080001A14D
:00000001FF
