:020000040800F2
:1000000040040020350100083D0100083F010008C0
:1000100041010008430100084501000800000000FC
:100020000000000000000000000000004701000880
:1000300049010008000000004B0100084D010008C4
:100040004F0100084F0100084F0100084F01000850
:100050004F0100084F0100084F0100084F01000840
:100060004F0100084F0100084F0100084F01000830
:100070004F0100084F0100084F0100084F01000820
:100080004F0100084F0100084F0100080000000068
:100090000000000000000000000000004F01000808
:1000A0004F0100084F0100084F0100084F010008F0
:1000B0004F0100084F0100084F0100084F010008E0
:1000C0004F0100084F0100084F0100084F010008D0
:1000D0004F0100084F0100084F0100084F010008C0
:1000E0004F0100084F0100084F0100080000000008
:1000F0000000000000000000000000000000000000
:1001000000000000000000000000000000000000EF
:1001100000000000000000004F0100084F0100082F
:10012000DFF80CD000F018F8004800478D080008F0
:10013000400400200648804706480047FEE7FEE7E7
:10014000FEE7FEE7FEE7FEE7FEE7FEE7FEE7FEE787
:100150007D04000821010008064C074D06E0E06818
:1001600040F0010394E8070098471034AC42F6D3FE
:10017000FFF7DAFF88090008A809000808B54FF45E
:100180007070ADF8000010208DF8030003208DF88A
:1001900002006946014800F003F808BD0010014064
:1001A0002DE9F0410246002500260020002300240E
:1001B000002791F803C00CF00F0591F803C00CF074
:1001C000100CBCF1000F03D091F802C04CEA0505F9
:1001D00091F800C0BCF1000F31D0146800202BE072
:1001E0004FF0010C0CFA00F3B1F800C00CEA030662
:1001F0009E4220D183004FF00F0C0CFA03F7BC4352
:1002000005FA03FC4CEA040491F803C0BCF1280F82
:1002100006D14FF0010C0CFA00FCC2F814C00AE041
:1002200091F803C0BCF1480F05D14FF0010C0CFA56
:1002300000FCC2F810C0401C0828D1D31460B1F8EB
:1002400000C0BCF1FF0F34DD546800202EE000F147
:10025000080C4FF0010808FA0CF3B1F800C00CEAE2
:1002600003069E4221D183004FF00F0C0CFA03F7D6
:10027000BC4305FA03FC4CEA040491F803C0BCF14A
:10028000280F05D100F1080C08FA0CF8C2F8148008
:1002900091F803C0BCF1480F07D100F1080C4FF0F2
:1002A000010808FA0CF8C2F81080401C0828CED3C8
:1002B0005460BDE8F08108B51C208DF800000020D6
:1002C0008DF8010001208DF802008DF803006846CA
:1002D00000F002F808BD000070B5002100230F22D5
:1002E000C47804B3154C246804F4E064C4F5E064F5
:1002F000210AC1F10403CA40447804FA03F1847866
:100300001440214309010E4C0678A155047804F0ED
:100310001F050124AC4005786D11AD0005F1E02505
:10032000C5F8004109E0047804F01F050124AC4041
:10033000044D0678761145F8264070BD0CED00E0BE
:1003400000E400E080E100E029B1064AD2690243FE
:10035000044BDA6104E0034AD2698243014BDA615B
:10036000704700000010024029B1064A926902431A
:10037000044B9A6104E0034A92698243014B9A61FB
:10038000704700000010024010B54FF4A06000F06C
:1003900009F801210846FFF7D7FF01211020FFF7D8
:1003A000E3FF10BD01460020034A506820F4E060DE
:1003B00008435060704700000010024010B500F084
:1003C00001F810BD0CB50020019000902A4800688B
:1003D00040F480302849086000BF2748006800F4D6
:1003E000003000900198401C0190009818B90198C5
:1003F000B0F5A06FF1D12048006800F4003010B1D2
:100400000120009001E0002000900098012831D1E7
:1004100019484068184948600846406848600846DE
:10042000406848600846406820F47C1048600846F0
:10043000406840F4981048600846006840F08070BA
:10044000086000BF0C48006800F000700028F9D078
:100450000948406820F003000749486008464068A2
:1004600040F00200486000BF0348406800F00C0004
:100470000828F9D10CBD00000010024010B5144846
:10048000006840F0010012490860084640681149C0
:1004900008400F494860084600680F4908400C4969
:1004A00008600846006820F480200860084640681C
:1004B00020F4FE0048604FF41F0088600020C862EE
:1004C000FFF77CFF4FF000600449086010BD00009A
:1004D000001002400000FFF8FFFFF6FE08ED00E00C
:1004E00021B1028842F00102028004E002884FF646
:1004F000FE731A40028070471AB183890B438381CF
:1005000002E083898B4383817047000070B500242B
:1005100000220023058C4FF6FE7635400584028CC0
:100520008388048B4FF68F752C40B51E2C400D88A8
:100530002C43751E2A400D892A434D882A43144DA9
:10054000A8420BD0134DA84208D0134DA84205D0A5
:10055000124DA84202D0124DA84213D14FF6F775A2
:100560002A404D892A434FF6FB752A408D882A433D
:100570004FF6FF652B404FF6FF552B408D892B43DF
:10058000CD892B4383800483CD888586028470BD0A
:10059000002C014000340140004001400044014073
:1005A000004801400A460021018B4FF6F7731940BD
:1005B000114301837047000070B50024002200231E
:1005C000058C4FF6EF7635400584028C8388048BCA
:1005D00048F6FF752C404FF6FF452C400D884FF62E
:1005E000FF7606EA05252C434FF6DF752A400D8974
:1005F00006EA05152A434D8806EA05152A43154DD6
:10060000A84202D0144DA8421DD14FF67F752A4052
:100610004D894FF6FF7606EA05152A434FF6BF755A
:100620002A408D8806EA05152A434FF6FF352B40F0
:100630004FF2FF752B408D8906EA85052B43CD8946
:1006400006EA85052B4383800483CD8805870284D1
:1006500070BD0000002C0140003401400A4600211A
:10066000018B4FF2FF7319404FF6FF7303EA022329
:10067000194301837047000070B500240022002355
:10068000058C4FF6FF6635400584028C8388848B89
:100690004FF68F752C404FF6FC752C400D882C437F
:1006A0004FF6FF552A400D894FF6FF7606EA0525DD
:1006B0002A434D8806EA05252A43154DA84202D053
:1006C000144DA8421DD14FF2FF752A404D894FF6B7
:1006D000FF7606EA05252A434FF6FF352A408D8826
:1006E00006EA05252A434EF6FF752B404DF6FF75A9
:1006F0002B408D8906EA05152B43CD8906EA0515A1
:100700002B4383808483CD888587028470BD00005D
:10071000002C0140003401400A460021818B4FF635
:10072000F7731940114381837047000070B50022B0
:1007300000230024058C4EF6FF7635400584038C9B
:100740008488828B48F6FF752A404FF6FF452A4081
:100750000D884FF6FF7606EA05252A434DF6FF750C
:100760002B400D8906EA05352B434D8806EA0535F1
:100770002B430B4DA84202D00A4DA84208D14BF69C
:10078000FF752C408D894FF6FF7606EA85152C43C0
:1007900084808283CD88A0F84050038470BD00001F
:1007A000002C0140003401400A460021818B4FF2A9
:1007B000FF7319404FF6FF7303EA02231943818345
:1007C0007047018582827047002202881D4B984243
:1007D0000ED01D4B98420BD0B0F1804F08D01B4B70
:1007E000984205D01A4B984202D01A4B984204D135
:1007F0004FF68F731A404B881A43174B984207D015
:10080000164B984204D04FF6FF431A40CB881A4348
:1008100002808B8883850B8803850A4B98420BD016
:10082000094B984208D00E4B984205D00D4B984288
:1008300002D00D4B984201D10B7A038601238382AB
:1008400070470000002C01400034014000040040CB
:1008500000080040000C0040001000400014004060
:1008600000400140004401400048014002E008C847
:10087000121F08C1002AFAD170477047002001E01A
:1008800001C1121F002AFBD170470000FFF77CFD59
:10089000FFF711FDFFF772FC324800683249B0FBE8
:1008A000F1F0401E314908804FF6FF7030498880D2
:1008B00000200880C88048804FF08040FFF784FF08
:1008C00001222A4801889007FFF77BFF0020294971
:1008D00008800120488028480088C88000200881BE
:1008E0004FF08040FFF712FE00214FF08040FFF7ED
:1008F00059FE01201F49488020480088C8804FF0D9
:100900008040FFF759FE00214FF08040FFF7A6FE20
:100910000120184948801A480088C8804FF080405C
:10092000FFF7AAFE00214FF08040FFF7F5FE0120FF
:100930001049488013480088C8804FF08040FFF776
:10094000F5FE00214FF08040FFF72EFF01221E210F
:100950009007FFF7D1FD01218807FFF7C1FD00BF18
:10096000FEE700000C000020001BB700080000207C
:10097000200000202A0000200000002002000020AB
:100980000400002006000020A80900080000002044
:10099000200000006C080008C809000820000020A2
:1009A000200400007C08000801A0AD6A5635AA1A90
:1009B0000000000000366E01000000000000000092
:0809C000010203040607080907
:0400000508000135B9
:00000001FF
