:020000040800F2
:1000000008040020350100083D0100083F010008F8
:1000100041010008430100084501000800000000FC
:100020000000000000000000000000004701000880
:1000300049010008000000004B0100084D010008C4
:100040004F0100084F0100084F0100084F01000850
:100050004F0100084F010008C10100084F010008CE
:100060004F0100084F0100084F0100084F01000830
:100070004F0100084F0100084F0100084F01000820
:100080004F0100084F0100084F0100080000000068
:100090000000000000000000000000004F01000808
:1000A0004F0100084F0100084F0100084F010008F0
:1000B0004F0100084F0100084F0100084F010008E0
:1000C0004F0100084F0100084F0100084F010008D0
:1000D0004F0100084F0100084F0100084F010008C0
:1000E0004F0100084F0100084F0100080000000008
:1000F0000000000000000000000000000000000000
:1001000000000000000000000000000000000000EF
:1001100000000000000000004F0100084F0100082F
:10012000DFF80CD000F018F800480047110600086E
:10013000080400200648804706480047FEE7FEE71F
:10014000FEE7FEE7FEE7FEE7FEE7FEE7FEE7FEE787
:100150008D05000821010008064C074D06E0E06807
:1001600040F0010394E8070098471034AC42F6D3FE
:10017000FFF7DAFF70060008900600080EB50021B0
:10018000032000F091F80120019000208DF8080074
:100190000C208DF8090001208DF80A0001A800F05C
:1001A00039F806208DF8000001208DF801008DF847
:1001B00002008DF80300684600F040F90EBD000013
:1001C00010B5012000F012F838B1012000F008F855
:1001D00001221102014800F012F910BD0010014087
:1001E00001490860704700001404014001460020E6
:1001F0000022074B1B6803EA0102054B14331B68FE
:100200000B4013B10AB1012000E00020704700004C
:1002100000040140002123498279002A3AD00A468D
:10022000126803689A430B461A600A1D1268036835
:100230009A430B1D1A60027911440A6803681A4335
:100240000A60184A0832126803689A43154B08334B
:100250001A601A1D126803689A43124B0C331A6015
:100260004279102A0ED11A1F126803681A430D4BE7
:1002700008331A601A1D126803681A43094B0C33BD
:100280001A600DE00749427911440A6803681A436D
:100290000A6005E0027911440A6803689A430A601B
:1002A000704700000004014030B500228B071C0F8E
:1002B0000F2303FA04F20B4B8C1053F824309343B2
:1002C000084C8D1044F8253023468C1053F8243008
:1002D0008C07240F00FA04F42343024C8D1044F8D9
:1002E000253030BD080001402DE9F04102460025CF
:1002F0000026002000230024002791F803C00CF002
:100300000F0591F803C00CF0100CBCF1000F03D0E6
:1003100091F802C04CEA050591F800C0BCF1000F4D
:1003200031D0146800202BE04FF0010C0CFA00F3E0
:10033000B1F800C00CEA03069E4220D183004FF0C2
:100340000F0C0CFA03F7BC4305FA03FC4CEA040457
:1003500091F803C0BCF1280F06D14FF0010C0CFA44
:1003600000FCC2F814C00AE091F803C0BCF1480FC9
:1003700005D14FF0010C0CFA00FCC2F810C0401C73
:100380000828D1D31460B1F800C0BCF1FF0F34DDF0
:10039000546800202EE000F1080C4FF0010808FA24
:1003A0000CF3B1F800C00CEA03069E4221D1830091
:1003B0004FF00F0C0CFA03F7BC4305FA03FC4CEAB0
:1003C000040491F803C0BCF1280F05D100F1080C1A
:1003D00008FA0CF8C2F8148091F803C0BCF1480F79
:1003E00007D100F1080C4FF0010808FA0CF8C2F828
:1003F0001080401C0828CED35460BDE8F0810AB1BB
:10040000016100E04161704708B50121202000F042
:100410004DF80121102000F049F810208DF803005C
:100420000001ADF8000003208DF802006946024883
:10043000FFF75AFF08BD00000010014070B5002111
:1004400000230F22C47804B3154C246804F4E0643C
:10045000C4F5E064210AC1F10403CA40447804FAF7
:1004600003F184781440214309010E4C0678A1550C
:10047000047804F01F050124AC4005786D11AD002F
:1004800005F1E025C5F8004109E0047804F01F05F6
:100490000124AC40044D0678761145F8264070BD25
:1004A0000CED00E000E400E080E100E029B1064A44
:1004B00092690243044B9A6104E0034A92698243C1
:1004C000014B9A61704700000010024010B500F027
:1004D00001F810BD0CB50020019000902A4800687A
:1004E00040F480302849086000BF2748006800F4C5
:1004F000003000900198401C0190009818B90198B4
:10050000B0F5A06FF1D12048006800F4003010B1C0
:100510000120009001E0002000900098012831D1D6
:1005200019484068184948600846406848600846CD
:10053000406848600846406820F47C1048600846DF
:10054000406840F4981048600846006840F08070A9
:10055000086000BF0C48006800F000700028F9D067
:100560000948406820F00300074948600846406891
:1005700040F00200486000BF0348406800F00C00F3
:100580000828F9D10CBD00000010024010B5144835
:10059000006840F0010012490860084640681149AF
:1005A00008400F494860084600680F4908400C4958
:1005B00008600846006820F480200860084640680B
:1005C00020F4FE0048604FF41F0088600020C862DD
:1005D000FFF77CFF4FF000600449086010BD000089
:1005E000001002400000FFF8FFFFF6FE08ED00E0FB
:1005F00002E008C8121F08C1002AFAD170477047EC
:10060000002001E001C1121F002AFBD17047000049
:10061000FFF7B4FDFFF7F8FE23E000201149086062
:1006200013E000201049086004E00F480068401CF7
:100630000D4908600C48006842F210718842F4DBF2
:1006400008480068401C074908600648006842F2F4
:1006500010718842E5DB00224FF480710348FFF7F8
:10066000CEFEDAE700000020040000200010014068
:10067000900600080000002008000000F0050008B7
:10068000980600080800002000040000000600088A
:08069000000000000000000062
:0400000508000135B9
:00000001FF
