:020000040800F2
:1000000060060020A1010008A9010008AB0100085A
:10001000AD010008AF010008B101000800000000B8
:10002000000000000000000000000000B301000814
:10003000B501000800000000B7010008B901000880
:10004000BB010008BB010008BB010008BB010008A0
:10005000BB010008BB010008BB010008BB01000890
:10006000BB010008BB010008BB010008BB01000880
:10007000BB010008BB010008BB010008BB01000870
:10008000BB010008BB010008BB0100080000000024
:10009000000000000000000000000000BB0100089C
:1000A000BB010008BB010008BB010008BB01000840
:1000B000BB010008BB010008BB010008BB01000830
:1000C000BB010008BB010008BB010008BB01000820
:1000D000BB010008BB010008BB010008BB01000810
:1000E000BB010008BB010008BB01000800000000C4
:1000F0000000000000000000000000000000000000
:1001000000000000000000000000000000000000EF
:100110000000000000000000BB010008BB01000857
:1001200000F002F800F02CF80AA090E8000C8244DD
:100130008344AAF10107DA4501D100F021F8AFF2BA
:10014000090EBAE80F0013F0010F18BFFB1A43F0B5
:10015000010318472C0700003C070000002300247F
:1001600000250026103A28BF78C1FBD8520728BFC7
:1001700030C148BF0B6070471FB51FBD10B510BD23
:1001800000F031F81146FFF7F7FF00F095F900F0A5
:100190004FF803B4FFF7F2FF03BC00F053F8000080
:1001A0000948804709480047FEE7FEE7FEE7FEE70B
:1001B000FEE7FEE7FEE7FEE7FEE7FEE70448054947
:1001C000054A064B7047000055040008210100084D
:1001D0006000002060060020600200206002002015
:1001E000704770477047754600F028F8AE46050026
:1001F0006946534620F00700854618B020B5FFF742
:10020000DDFFBDE820404FF000064FF000074FF043
:1002100000084FF0000B21F00701AC46ACE8C00924
:10022000ACE8C009ACE8C009ACE8C0098D4670472D
:100230000446AFF300802046FFF7ABFF004870474D
:100240000000002001491820ABBEFEE72600020096
:1002500070472DE9F04102460025002600200023CA
:100260000024002791F803C00CF00F0591F803C09B
:100270000CF0100CBCF1000F03D091F802C04CEA56
:10028000050591F800C0BCF1000F31D014680020C2
:100290002BE04FF0010C0CFA00F3B1F800C00CEAAF
:1002A00003069E4220D183004FF00F0C0CFA03F797
:1002B000BC4305FA03FC4CEA040491F803C0BCF10A
:1002C000280F06D14FF0010C0CFA00FCC2F814C044
:1002D0000AE091F803C0BCF1480F05D14FF0010CC2
:1002E0000CFA00FCC2F810C0401C0828D1D31460DE
:1002F000B1F800C0BCF1FF0F34DD546800202EE0DF
:1003000000F1080C4FF0010808FA0CF3B1F800C036
:100310000CEA03069E4221D183004FF00F0C0CFA29
:1003200003F7BC4305FA03FC4CEA040491F803C04C
:10033000BCF1280F05D100F1080C08FA0CF8C2F83E
:10034000148091F803C0BCF1480F07D100F1080CEC
:100350004FF0010808FA0CF8C2F81080401C082879
:10036000CED35460BDE8F0810AB1016100E0416183
:100370007047000029B1064A92690243044B9A6112
:1003800004E0034A92698243014B9A61704700007E
:100390000010024010B500F001F810BD0CB50020AF
:1003A000019000902A48006840F480302849086095
:1003B00000BF2748006800F4003000900198401CFE
:1003C0000190009818B90198B0F5A06FF1D12048BC
:1003D000006800F4003010B10120009001E000201E
:1003E00000900098012831D11948406818494860A8
:1003F00008464068486008464068486008464068CB
:1004000020F47C1048600846406840F4981048602A
:100410000846006840F08070086000BF0C48006823
:1004200000F000700028F9D00948406820F003006F
:10043000074948600846406840F00200486000BF35
:100440000348406800F00C000828F9D10CBD0000FA
:100450000010024010B51448006840F00100124935
:10046000086008464068114908400F49486008463E
:1004700000680F4908400C4908600846006820F4ED
:10048000802008600846406820F4FE0048604FF471
:100490001F0088600020C862FFF77CFF4FF00060FB
:1004A0000449086010BD0000001002400000FFF881
:1004B000FFFFF6FE08ED00E008B501211020FFF770
:1004C00059FF4FF44070ADF8000002208DF8020093
:1004D00010208DF8030069461D48FFF7BAFE36E08C
:1004E0001C4E1D4FDFF87480002500BF09E039461F
:1004F000304600F0F9F88146414600F033F8804676
:100500006D1C062DF3DB012211021148FFF72CFFB1
:100510004FF400700E490861114C00E0641E002C7D
:10052000FCD10F4C00E0641E002CFCD14FF4007095
:100530000749486140104861094C00E0641E002CE6
:10054000FCD1074C00E0641E002CFCD100BFC7E7C3
:1005500000100140000028420000B8410000E040C7
:1005600020A107004FF47F0C1CEAD0121EBF1CEA2A
:10057000D11392EA0C0F93EA0C0F00F0858090EAF9
:10058000010F48BF42F4807240F4000C41F40000B7
:100590002CF07F4120F07F4000B58142A2EB0302A6
:1005A0000FF2081CACEB504EC0F100009EF800E0CA
:1005B0004FEA4E0E00FB0EFC38BF49004FEA2C1CE0
:1005C00002F5FA020CFB0EF34FEACE1E4FEA112C95
:1005D0004FEAC1210EEB635E42EB22420EFB0CFCA4
:1005E0004FEA1C5300FB03114FEA112C4FEA013173
:1005F0000EFB0CFC4FEADC4C00FB0C11C14228BF87
:1006000009184CEB03335DF804EB10EB410143EBAD
:10061000C250B2F57C0F38BF704729D512F0F00FE9
:100620001CBF00F1C04000F0004070470081828391
:100630008485868788898B8C8D8E8F9192939596F1
:1006400097999A9C9D9FA0A2A3A5A7A8AAACAEB07B
:10065000B2B3B5B7B9BCBEC0C2C5C7C9CCCED1D480
:10066000D7D9DCDFE2E6E9ECF0F3F7FAFE000000B0
:100670004FEA400C0CF1807CBCF17E4F28BF7047E4
:10068000B0F1C04000F0F7B890EA010F0CEAD113C6
:1006900048BF42F48072624538BF634507D213F405
:1006A0007F0F16D080EA010000F00040704710B5BF
:1006B00000F09BF8097EFC3E00F005B880EA0100DE
:1006C00000F00040704780EA010000F0004000F0B8
:1006D000D2B812F47F0F04BF0248704780EA0100CD
:1006E00000F0C9B80000C07F4FF47F0C1CEAD012A4
:1006F0001EBF1CEAD11392EA0C0F93EA0C0F00F014
:10070000478090EA010F48BF42F480724FF0004CDE
:100710004CEA00204CEA012102EB0302A0FB01138A
:10072000A2F50002002918BF43F001035B0028BFB7
:100730004FEA330342EB22425FEA132C4CEBC250E8
:100740002EBFBCEB436FB2F57C0F70474FEA036CD2
:10075000BCF1004F08BF20F00100B2F57C0F38BF9C
:1007600070470BD582F0FF0212F5803FC8BF70477B
:1007700000F1C040D8BF00F00040704700F5000C09
:100780005FEA4C0C48BF7047B0F1C04000F073B84E
:1007900090EA010F0CEAD11348BF42F4807262451F
:1007A00038BF634504D280EA010000F00040704782
:1007B00010B500F01AF800BF8900013E00F007B83C
:1007C00000F009B85FEA410C5FEA1C6C08D080EACF
:1007D000010000F050B85FEA400C5FEA1C6CF6D1F3
:1007E0004FF00040A0F5800070470EF1020E2EF091
:1007F000030E5EF8044B244204D44FEA4102B2F1E6
:100800007F4F11D84FEA4003B3F17F4F0CD80ED180
:100810004FEAD07CB2F17F4F0CEB4C0C0CF1020C88
:1008200008BF4CEBD17C04E04FF0080C01E04FEA2C
:10083000D17C0CEB4C0324FA03F404F00704B4F16C
:10084000040C06D20EEB840CBDE810404CF0010CF9
:100850006047DFE80CF0070802024FF00040A0F507
:10086000800010BD0846420018BFD2F1807288BFD8
:1008700000F0004010BDFF2141EAD050C005704794
:100880009008000800000020600600005C010008DD
:04000005080001A14D
:00000001FF
