:020000040800F2
:1000000008040020350100083D0100083F010008F8
:1000100041010008430100084501000800000000FC
:100020000000000000000000000000004701000880
:1000300049010008000000004B0100084D010008C4
:100040004F0100084F0100084F0100084F01000850
:100050004F0100084F0100084F0100084F01000840
:100060004F0100084F0100084F0100084F01000830
:100070004F0100084F0100084F0100084F01000820
:100080004F0100084F0100084F0100080000000068
:100090000000000000000000000000004F01000808
:1000A0004F0100084F0100084F0100084F010008F0
:1000B0004F0100084F0100084F0100084F010008E0
:1000C0004F0100084F0100084F0100084F010008D0
:1000D0004F0100084F0100084F0100084F010008C0
:1000E0004F0100084F0100084F0100080000000008
:1000F0000000000000000000000000000000000000
:1001000000000000000000000000000000000000EF
:1001100000000000000000004F0100084F0100082F
:10012000DFF80CD000F018F800480047F903000889
:10013000080400200648804706480047FEE7FEE71F
:10014000FEE7FEE7FEE7FEE7FEE7FEE7FEE7FEE787
:100150007503000821010008064C074D06E0E06821
:1001600040F0010394E8070098471034AC42F6D3FE
:10017000FFF7DAFFB8040008D80400082DE9F041C1
:10018000024600250026002000230024002791F8C5
:1001900003C00CF00F0591F803C00CF0100CBCF17B
:1001A000000F03D091F802C04CEA050591F800C099
:1001B000BCF1000F31D0146800202BE04FF0010C8F
:1001C0000CFA00F3B1F800C00CEA03069E4220D1FD
:1001D00083004FF00F0C0CFA03F7BC4305FA03FC45
:1001E0004CEA040491F803C0BCF1280F06D14FF08B
:1001F000010C0CFA00FCC2F814C00AE091F803C02C
:10020000BCF1480F05D14FF0010C0CFA00FCC2F80C
:1002100010C0401C0828D1D31460B1F800C0BCF154
:10022000FF0F34DD546800202EE000F1080C4FF081
:10023000010808FA0CF3B1F800C00CEA03069E426C
:1002400021D183004FF00F0C0CFA03F7BC4305FAE1
:1002500003FC4CEA040491F803C0BCF1280F05D15B
:1002600000F1080C08FA0CF8C2F8148091F803C0E9
:10027000BCF1480F07D100F1080C4FF0010808FA53
:100280000CF8C2F81080401C0828CED35460BDE89A
:10029000F081000029B1064A92690243044B9A6139
:1002A00004E0034A92698243014B9A61704700005F
:1002B0000010024010B500F001F810BD0CB5002090
:1002C000019000902A48006840F480302849086076
:1002D00000BF2748006800F4003000900198401CDF
:1002E0000190009818B90198B0F5A06FF1D120489D
:1002F000006800F4003010B10120009001E00020FF
:1003000000900098012831D1194840681849486088
:1003100008464068486008464068486008464068AB
:1003200020F47C1048600846406840F4981048600B
:100330000846006840F08070086000BF0C48006804
:1003400000F000700028F9D00948406820F0030050
:10035000074948600846406840F00200486000BF16
:100360000348406800F00C000828F9D10CBD0000DB
:100370000010024010B51448006840F00100124916
:10038000086008464068114908400F49486008461F
:1003900000680F4908400C4908600846006820F4CE
:1003A000802008600846406820F4FE0048604FF452
:1003B0001F0088600020C862FFF77CFF4FF00060DC
:1003C0000449086010BD0000001002400000FFF862
:1003D000FFFFF6FE08ED00E002E008C8121F08C1AA
:1003E000002AFAD170477047002001E001C1121FB6
:1003F000002AFBD17047000008B501211020FFF74B
:1004000049FF4FF44070ADF8000003208DF8020062
:1004100010208DF8030069462448FFF7AFFE43E043
:100420002248C06880F480702049C86000202049BC
:10043000086012E000201F49086004E01D480068C1
:10044000401C1C4908601B480068B0F57A7FF5DB4A
:1004500017480068401C1649086015480068B0F548
:100460007A7FE7DB1148C06880F400700F49C860EC
:1004700000200F49086012E000200E49086004E0E7
:100480000C480068401C0B4908600A480068B0F539
:100490007A7FF5DB06480068401C0549086004487F
:1004A0000068B0F57A7FE7DBBAE700000010014092
:1004B0000000002004000020D804000800000020F4
:1004C00008000000D8030008E0040008080000202D
:1004D00000040000E8030008000000000000000025
:0400000508000135B9
:00000001FF
