:020000040800F2
:1000000008040020350100083D0100083F010008F8
:1000100041010008430100084501000800000000FC
:100020000000000000000000000000004701000880
:1000300049010008000000004B0100084D010008C4
:100040004F0100084F0100084F0100084F01000850
:100050004F0100084F0100084F0100084F01000840
:100060004F0100084F0100084F0100084F01000830
:100070004F0100084F0100084F0100084F01000820
:100080004F0100084F0100084F0100080000000068
:100090000000000000000000000000004F01000808
:1000A0004F0100084F0100084F0100084F010008F0
:1000B000B50400084F0100084F0100084F01000877
:1000C0004F0100084F0100084F0100084F010008D0
:1000D0004F0100084F0100084F0100084F010008C0
:1000E0004F0100084F0100084F0100080000000008
:1000F0000000000000000000000000000000000000
:1001000000000000000000000000000000000000EF
:1001100000000000000000004F0100084F0100082F
:10012000DFF80CD000F018F8004800471D06000862
:10013000080400200648804706480047FEE7FEE71F
:10014000FEE7FEE7FEE7FEE7FEE7FEE7FEE7FEE787
:100150005104000821010008064C074D06E0E06844
:1001600040F0010394E8070098471034AC42F6D3FE
:10017000FFF7DAFF540600087406000808B50121ED
:10018000102000F0F5F84FF40070ADF800001020DA
:100190008DF8030003208DF802006946014800F045
:1001A00003F808BD001001402DE9F041024600258A
:1001B0000026002000230024002791F803C00CF043
:1001C0000F0591F803C00CF0100CBCF1000F03D028
:1001D00091F802C04CEA050591F800C0BCF1000F8F
:1001E00031D0146800202BE04FF0010C0CFA00F322
:1001F000B1F800C00CEA03069E4220D183004FF004
:100200000F0C0CFA03F7BC4305FA03FC4CEA040498
:1002100091F803C0BCF1280F06D14FF0010C0CFA85
:1002200000FCC2F814C00AE091F803C0BCF1480F0A
:1002300005D14FF0010C0CFA00FCC2F810C0401CB4
:100240000828D1D31460B1F800C0BCF1FF0F34DD31
:10025000546800202EE000F1080C4FF0010808FA65
:100260000CF3B1F800C00CEA03069E4221D18300D2
:100270004FF00F0C0CFA03F7BC4305FA03FC4CEAF1
:10028000040491F803C0BCF1280F05D100F1080C5B
:1002900008FA0CF8C2F8148091F803C0BCF1480FBA
:1002A00007D100F1080C4FF0010808FA0CF8C2F869
:1002B0001080401C0828CED35460BDE8F08138B5CA
:1002C0000446E0B28DF8000001208DF80300002004
:1002D0008DF801008DF80200684600F001F838BD85
:1002E00070B5002100230F22C47804B3154C246894
:1002F00004F4E064C4F5E064210AC1F10403CA40D7
:10030000447804FA03F184781440214309010E4C27
:100310000678A155047804F01F050124AC40057847
:100320006D11AD0005F1E025C5F8004109E0047844
:1003300004F01F050124AC40044D0678761145F801
:10034000264070BD0CED00E000E400E080E100E03C
:1003500029B1064AD2690243044BDA6104E0034A38
:10036000D2698243014BDA617047000000100240FD
:1003700029B1064A92690243044B9A6104E0034A98
:1003800092698243014B9A6170470000001002405D
:1003900010B500F001F810BD0CB5002001900090E0
:1003A0002A48006840F480302849086000BF274888
:1003B000006800F4003000900198401C0190009803
:1003C00018B90198B0F5A06FF1D12048006800F489
:1003D000003010B10120009001E000200090009852
:1003E000012831D1194840681849486008464068DA
:1003F00048600846406848600846406820F47C1021
:1004000048600846406840F4981048600846006814
:1004100040F08070086000BF0C48006800F0007079
:100420000028F9D00948406820F0030007494860D7
:100430000846406840F00200486000BF034840683A
:1004400000F00C000828F9D10CBD0000001002409B
:1004500010B51448006840F00100124908600846D1
:100460004068114908400F494860084600680F4934
:1004700008400C4908600846006820F480200860A5
:100480000846406820F4FE0048604FF41F00886072
:100490000020C862FFF77CFF4FF00060044908604D
:1004A00010BD0000001002400000FFF8FFFFF6FE44
:1004B00008ED00E007E04FF08040008A20F00100E6
:1004C0004FF0804108824FF08040008A00F0010028
:1004D0000028F0DC02480068401C014908607047B1
:1004E000000000200EB501210846FFF731FF002073
:1004F000ADF80600ADF8020045F6BF50ADF80000BB
:1005000040F2E730ADF8040000208DF8080069469D
:100510004FF0804000F020F801221146900700F0D3
:1005200011F80121880700F001F80EBD21B1028801
:1005300042F00102028004E002884FF6FE731A4086
:10054000028070471AB183890B43838102E083895B
:100550008B43838170470000002202881D4B984224
:100560000ED01D4B98420BD0B0F1804F08D01B4BE2
:10057000984205D01A4B984202D01A4B984204D1A7
:100580004FF68F731A404B881A43174B984207D087
:10059000164B984204D04FF6FF431A40CB881A43BB
:1005A00002808B8883850B8803850A4B98420BD089
:1005B000094B984208D00E4B984205D00D4B9842FB
:1005C00002D00D4B984201D10B7A0386012383821E
:1005D00070470000002C014000340140000400403E
:1005E00000080040000C00400010004000140040D3
:1005F00000400140004401400048014002E008C8BA
:10060000121F08C1002AFAD170477047002001E08C
:1006100001C1121F002AFBD170470000FFF718FF2D
:10062000FFF760FF1C20FFF74AFEFFF7A7FD0CE075
:1006300006480068052808D30548C06880F40070A3
:100640000349C860002001490860F1E7000000206C
:1006500000100140740600080000002004000000A3
:10066000FC050008780600080400002004040000CF
:080670000C0600080000000068
:0400000508000135B9
:00000001FF
