:020000040800F2
:1000000008040020350100083D0100083F010008F8
:1000100041010008430100084501000800000000FC
:100020000000000000000000000000004701000880
:1000300049010008000000004B0100084D010008C4
:100040004F0100084F0100084F0100084F01000850
:100050004F0100084F0100084F0100084F01000840
:100060004F0100084F0100084F0100084F01000830
:100070004F0100084F0100084F0100084F01000820
:100080004F0100084F0100084F0100080000000068
:100090000000000000000000000000004F01000808
:1000A0004F0100084F0100084F0100084F010008F0
:1000B0004F0100084F0100084F0100084F010008E0
:1000C0004F0100084F0100084F0100084F010008D0
:1000D0004F0100084F0100084F0100084F010008C0
:1000E0004F0100084F0100084F0100080000000008
:1000F0000000000000000000000000000000000000
:1001000000000000000000000000000000000000EF
:1001100000000000000000004F0100084F0100082F
:10012000DFF80CD000F018F800480047B5060008CA
:10013000080400200648804706480047FEE7FEE71F
:10014000FEE7FEE7FEE7FEE7FEE7FEE7FEE7FEE787
:100150003504000821010008064C074D06E0E06860
:1001600040F0010394E8070098471034AC42F6D3FE
:10017000FFF7DAFF88070008A80700082DE9F0411B
:10018000024600250026002000230024002791F8C5
:1001900003C00CF00F0591F803C00CF0100CBCF17B
:1001A000000F03D091F802C04CEA050591F800C099
:1001B000BCF1000F31D0146800202BE04FF0010C8F
:1001C0000CFA00F3B1F800C00CEA03069E4220D1FD
:1001D00083004FF00F0C0CFA03F7BC4305FA03FC45
:1001E0004CEA040491F803C0BCF1280F06D14FF08B
:1001F000010C0CFA00FCC2F814C00AE091F803C02C
:10020000BCF1480F05D14FF0010C0CFA00FCC2F80C
:1002100010C0401C0828D1D31460B1F800C0BCF154
:10022000FF0F34DD546800202EE000F1080C4FF081
:10023000010808FA0CF3B1F800C00CEA03069E426C
:1002400021D183004FF00F0C0CFA03F7BC4305FAE1
:1002500003FC4CEA040491F803C0BCF1280F05D15B
:1002600000F1080C08FA0CF8C2F8148091F803C0E9
:10027000BCF1480F07D100F1080C4FF0010808FA53
:100280000CF8C2F81080401C0828CED35460BDE89A
:10029000F0810000F0B50A4600230024002100256B
:1002A00000F00046B6F1004F02D11D4EF16901E0A9
:1002B0001B4E7168C0F3034583B200F44016B6F5D7
:1002C000401F08D121F07061154E766826F07066E7
:1002D000134F7E6012E000F48016B6F5801F06D141
:1002E000032606FA05F4A14341F0706106E0460DCD
:1002F000360103FA06F6B14341F0706122B1460DB2
:10030000360103FA06F6314300F00046B6F1004F1D
:1003100002D1034EF16101E0014E7160F0BD0000B9
:10032000000001404FF6FF7101800221817004211D
:10033000C170704729B1064AD2690243044BDA61A1
:1003400004E0034AD2698243014BDA61704700003E
:100350000010024029B1064A92690243044B9A6197
:1003600004E0034A92698243014B9A61704700009E
:100370000010024010B500F001F810BD0CB50020CF
:10038000019000902A48006840F4803028490860B5
:1003900000BF2748006800F4003000900198401C1E
:1003A0000190009818B90198B0F5A06FF1D12048DC
:1003B000006800F4003010B10120009001E000203E
:1003C00000900098012831D11948406818494860C8
:1003D00008464068486008464068486008464068EB
:1003E00020F47C1048600846406840F4981048604B
:1003F0000846006840F08070086000BF0C48006844
:1004000000F000700028F9D00948406820F003008F
:10041000074948600846406840F00200486000BF55
:100420000348406800F00C000828F9D10CBD00001A
:100430000010024010B51448006840F00100124955
:10044000086008464068114908400F49486008465E
:1004500000680F4908400C4908600846006820F40D
:10046000802008600846406820F4FE0048604FF491
:100470001F0088600020C862FFF77CFF4FF000601B
:100480000449086010BD0000001002400000FFF8A1
:10049000FFFFF6FE08ED00E021B1028842F0010204
:1004A000028004E002884FF6FE731A400280704713
:1004B00070B5002400220023058C4FF6FF663540FE
:1004C0000584028C8388848B4FF68F752C404FF601
:1004D000FC752C400D882C434FF6FF552A400D89A2
:1004E0004FF6FF7606EA05252A434D8806EA0525DC
:1004F0002A43154DA84202D0144DA8421DD14FF2F7
:10050000FF752A404D894FF6FF7606EA05252A43F6
:100510004FF6FF352A408D8806EA05252A434EF618
:10052000FF752B404DF6FF752B408D8906EA0515AA
:100530002B43CD8906EA05152B4383808483CD8820
:100540008587028470BD0000002C0140003401400A
:1005500070B5002200230024058C4EF6FF7635404E
:100560000584038C8488828B48F6FF752A404FF6F9
:10057000FF452A400D884FF6FF7606EA05252A43F7
:100580004DF6FF752B400D8906EA05352B434D8846
:1005900006EA05352B430B4DA84202D00A4DA8426E
:1005A00008D14BF6FF752C408D894FF6FF7606EA91
:1005B00085152C4384808283CD88A0F84050038425
:1005C00070BD0000002C014000340140002101807A
:1005D00041808180C180018141818181C1817047D9
:1005E000002202881D4B98420ED01D4B98420BD022
:1005F000B0F1804F08D01B4B984205D01A4B98425F
:1006000002D01A4B984204D14FF68F731A404B8890
:100610001A43174B984207D0164B984204D04FF616
:10062000FF431A40CB881A4302808B8883850B884E
:1006300003850A4B98420BD0094B984208D00E4BC9
:10064000984205D00D4B984202D00D4B984201D1F3
:100650000B7A03860123838270470000002C01403F
:10066000003401400004004000080040000C00403D
:1006700000100040001400400040014000440140D0
:10068000004801404FF6FF71818000210180C18048
:1006900041800172704702E008C8121F08C1002A99
:1006A000FAD170477047002001E001C1121F002AF3
:1006B000FBD1704788B001211120FFF74BFE0121CB
:1006C0000220FFF737FE07A8FFF72CFE4FF440701B
:1006D000ADF81C0003208DF81E0018208DF81F00B7
:1006E00007A92548FFF74AFD01212448FFF7D2FD5D
:1006F00004A8FFF7C7FF4FF40070ADF8160040F2F2
:10070000E730ADF81400EF20ADF8100004A91C4844
:10071000FFF766FF6846FFF759FF0120ADF80200BA
:100720006020ADF800000020ADF8060069461448CE
:10073000FFF7BEFE69461248FFF70AFF0121104885
:10074000FFF7AAFE16E000200E4908600DE00D48F4
:1007500000880B493C3108800A480088091D088040
:1007600008480068401C0749086006480068B0F562
:100770007A7FECDBE7E7000000100140000C1A0074
:100780000004004000000020A8070008000000202E
:100790000800000096060008B007000808000020C6
:1007A00000040000A6060008000000000000000091
:0400000508000135B9
:00000001FF
