:020000040800F2
:1000000040040020350100083D0100083F010008C0
:1000100041010008430100084501000800000000FC
:100020000000000000000000000000004701000880
:1000300049010008000000004B0100084D010008C4
:100040004F0100084F0100084F0100084F01000850
:100050004F0100084F0100084F0100084F01000840
:100060004F0100084F0100084F0100084F01000830
:100070004F0100084F0100084F0100084F01000820
:100080004F0100084F0100084F0100080000000068
:100090000000000000000000000000004F01000808
:1000A0004F0100084F0100084F0100084F010008F0
:1000B0004F0100084F0100084F0100084F010008E0
:1000C0004F0100084F0100084F0100084F010008D0
:1000D0004F0100084F0100084F0100084F010008C0
:1000E0004F0100084F0100084F0100080000000008
:1000F0000000000000000000000000000000000000
:1001000000000000000000000000000000000000EF
:1001100000000000000000004F0100084F0100082F
:10012000DFF80CD000F02EF800480047C10B0008A3
:10013000400400200648804706480047FEE7FEE7E7
:10014000FEE7FEE7FEE7FEE7FEE7FEE7FEE7FEE787
:100150004D0600082101000830B50B46014600207D
:100160002022012409E021FA02F59D4205D303FA79
:1001700002F5491B04FA02F52844151EA2F10102FA
:10018000F1DC30BD064C074D06E0E06840F00103AD
:1001900094E8070098471034AC42F6D3FFF7C4FF49
:1001A000B80C0008D80C000821B1826842F00102A6
:1001B000826003E0826822F001028260704701469B
:1001C00000208A6802F004020AB1012000E0002049
:1001D00070470146C86C80B2704702460020136821
:1001E0000B400BB1012000E00020704701460020C9
:1001F0008A6802F008020AB1012000E0002070477E
:1002000030B502460020002350680F4C20400D7985
:100210000C6844EA05242043506090680B4C204051
:10022000D1E902542C434D7944EA450420439060BF
:10023000D06A20F470000C7C641EE4B2234340EAD0
:100240000350D06230BD0000FFFEF0FFFDF7F1FF6C
:10025000F0B504460D4600200021092D11DDE068AF
:10026000A5F10A0606EB4607072606FA07F18843BA
:10027000A5F10A0606EB460603FA06F10843E0601C
:100280000CE0206905EB4507072606FA07F18843CD
:1002900005EB450603FA06F108432061072A0FDA49
:1002A000606B561E06EB86071F2606FA07F1884389
:1002B000561E06EB860605FA06F10843606322E047
:1002C0000D2A0FDA206BD61F06EB86071F2606FACB
:1002D00007F18843D61F06EB860605FA06F10843A8
:1002E000206310E0E06AA2F10D0606EB86071F26E8
:1002F00006FA07F18843A2F10D0606EB860605FA19
:1003000006F10843E062F0BD816841F008018160B8
:10031000704721B1826842F4A002826003E08268E3
:1003200022F4A00282607047816841F0040181607C
:100330007047000010B54FF400700949088018207C
:10034000C87003208870074800F00EF84FF48060F2
:10035000034908800420C870024800F005F810BD69
:1003600000000020000801402DE9F0410246002570
:100370000026002000230024002791F803C00CF081
:100380000F0591F803C00CF0100CBCF1000F03D066
:1003900091F802C04CEA050591F800C0BCF1000FCD
:1003A00031D0146800202BE04FF0010C0CFA00F360
:1003B000B1F800C00CEA03069E4220D183004FF042
:1003C0000F0C0CFA03F7BC4305FA03FC4CEA0404D7
:1003D00091F803C0BCF1280F06D14FF0010C0CFAC4
:1003E00000FCC2F814C00AE091F803C0BCF1480F49
:1003F00005D14FF0010C0CFA00FCC2F810C0401CF3
:100400000828D1D31460B1F800C0BCF1FF0F34DD6F
:10041000546800202EE000F1080C4FF0010808FAA3
:100420000CF3B1F800C00CEA03069E4221D1830010
:100430004FF00F0C0CFA03F7BC4305FA03FC4CEA2F
:10044000040491F803C0BCF1280F05D100F1080C99
:1004500008FA0CF8C2F8148091F803C0BCF1480FF8
:1004600007D100F1080C4FF0010808FA0CF8C2F8A7
:100470001080401C0828CED35460BDE8F0810000F5
:1004800001460020034A506820F440400843506071
:10049000704700000010024029B1064A92690243E9
:1004A000044B9A6104E0034A92698243014B9A61CA
:1004B000704700000010024070B5002100230024A6
:1004C000002200252C4E766806F00C0121B104298B
:1004D00005D0082921D105E0284E066020E0274EEE
:1004E00006601DE0244E766806F47013224E76688E
:1004F00006F48034022606EB93431CB9204E5E437B
:10050000066009E01C4EF66A06F00F06751C1B4ECD
:10051000B6FBF5F65E43066002E0184E066000BFCB
:1005200000BF154E766806F0F0010909154E725CA1
:100530000668D6404660104E766806F4E061090A07
:10054000104E725C4668D64086600B4E766806F4A4
:100550006051C90A0B4E725C4668D640C660064EB2
:10056000766806F44041890B074E725CC668B6FB9C
:10057000F2F6066170BD00000010024000127A0021
:1005800000093D00080000201800002010B500F010
:1005900001F810BD0CB50020019000902A480068B9
:1005A00040F480302849086000BF2748006800F404
:1005B000003000900198401C0190009818B90198F3
:1005C000B0F5A06FF1D12048006800F4003010B100
:1005D0000120009001E0002000900098012831D116
:1005E000194840681849486008464068486008460D
:1005F000406848600846406820F47C10486008461F
:10060000406840F4981048600846006840F08070E8
:10061000086000BF0C48006800F000700028F9D0A6
:100620000948406820F003000749486008464068D0
:1006300040F00200486000BF0348406800F00C0032
:100640000828F9D10CBD00000010024010B5144874
:10065000006840F0010012490860084640681149EE
:1006600008400F494860084600680F4908400C4997
:1006700008600846006820F480200860084640684A
:1006800020F4FE0048604FF41F0088600020C8621C
:10069000FFF77CFF4FF000600449086010BD0000C8
:1006A000001002400000FFF8FFFFF6FE08ED00E03A
:1006B00070B504460D460BE014F8011B074800F026
:1006C000B1F800BF4021054800F032F80028F9D009
:1006D0002800A5F10105EFD170BD000000380140F0
:1006E00021B1828942F40052828104E082894DF670
:1006F000FF731A40828170471FB54FF41650009067
:100700000020ADF80400ADF80600ADF80800ADF823
:100710000C000C20ADF80A006946044800F016F8F9
:1007200001210248FFF7DCFF1FBD00000038014037
:1007300002460020B1F5007F00D100BF13880B40B6
:100740000BB1012000E00020704700002DE9F047C8
:1007500086B005460E460024A24600BFA1460027EB
:10076000B08900B100BF2F462C8A4CF6FF700440C0
:10077000F08804432C82AC894EF6F3100440B08814
:1007800031890843718908430443AC81AC8A4FF630
:10079000FF400440B0890443AC8201A8FFF78CFEFF
:1007A0001F48874202D1DDF810A001E0DDF80CA05F
:1007B000A88900F4004040B10AEBCA0000EB0A101F
:1007C00031684900B0FBF1F807E00AEBCA0000EB22
:1007D0000A1031688900B0FBF1F86420B8FBF0F032
:1007E00004012009642101FB1089A88900F400405C
:1007F00040B1322000EBC900B0FBF1F000F007007F
:10080000044308E0322000EB09106421B0FBF1F052
:1008100000F00F0004432C8106B0BDE8F087000013
:1008200000380140C1F30802828070470FB4084BC2
:1008300010B504A902AA039800F01CF8044602A906
:10084000002000F0B8F9204610BC5DF814FB000051
:10085000B70B000802E008C8121F08C1002AFAD12D
:1008600070477047002001E001C1121F002AFBD130
:10087000704700002DE9FF4F8BB0884605460026E3
:1008800006E025280BD0DDE90D1290476D1C761C83
:1008900028780028F5D10FB03046BDE8F08F00244D
:1008A000A146A2460122AE4900E0044315F8013FEB
:1008B000203B02FA03F00842F7D128782A2810D00A
:1008C0006FF02F022878A0F13001092915D809EB23
:1008D000890102EB410144F0020400EB01096D1CA7
:1008E000F0E758F8041B5FEA010903D544F400540B
:1008F000C9F1000944F002046D1C28782E2817D194
:1009000015F8010F44F004042A280ED06FF02F02CE
:100910002878A0F1300109290AD80AEB8A0102EBF4
:10092000410100EB010A6D1CF2E758F804AB6D1CA5
:1009300028786C280FD006DC4C2817D068280DD0FA
:100940006A2814D104E0742810D07A280FD10DE061
:1009500044F400140AE044F4801401E044F4401428
:100960006978814202D104F580146D1C6D1C2878D1
:10097000692865D006DC00288DD0632827D064283C
:1009800006D15DE06E2808D073282AD0752877D06C
:10099000DDE90D129047761CE0E0C4F30250022816
:1009A00009D003280DD0D8F8001004280DD00E600F
:1009B00008F10408D2E0D8F80010F217C1E900628B
:1009C000F6E7D8F800100E80F2E70E70F0E718F89E
:1009D000041B8DF8001000208DF80100EB4601206B
:1009E00003E058F804BB4FF0FF3061074FF00007F9
:1009F00001D40AE07F1C57450DDA8742FADB1BF869
:100A000007100029F6D106E07F1C8742FCDB1BF8AB
:100A100007100029F8D1DDE90D23A9EB0700814675
:100A2000214600F0B1F83044C61904E0DDE90D12AA
:100A30001BF8010B90477F1EF8D22146484688E0FC
:100A400058F8040BC4F302514FF00A0B032900D1EC
:100A500000B2042900D140B2002802DA40422D2120
:100A600002E0210505D52B218DF82410012104E099
:100A700006E0E10710D02021F6E708AF089113E067
:100A800058F8040BC4F302514FF00A0B032900D1AC
:100A900080B2042900D1C0B20021EEE75946FFF729
:100AA0005BFB303107F8011D0028F7D1ADEB0700E3
:100AB00000F1200B600702D524F4803401E04FF0F0
:100AC000010ADA4502DDAAEB0B0000E000208246B5
:100AD00000EB0B0108980144A9EB01000A90E00328
:100AE00006D4DDE90D2321460A9800F04DF80644AE
:100AF0004FF0000908E009A911F80900DDE90D121D
:100B0000904709F10109761C08998945F3DBE00358
:100B10000CD5DDE90D2321460A9800F035F806448E
:100B200004E0DDE90D1230209047761CBAF1000197
:100B3000AAF1010AF5DC05E0DDE90D1217F8010B59
:100B40009047761CBBF10001ABF1010BF4DC0A9875
:100B50002146DDE90D2300F005F806446D1C97E6FB
:100B6000092801002DE9F041044600251E461746DC
:100B7000880404D405E039462020B0476D1C641E6B
:100B8000F9D52846BDE8F0812DE9F041044600255D
:100B90001E469046C80301D5302700E02027880470
:100BA00004D505E041463846B0476D1C641EF9D5B2
:100BB0002846BDE8F0810A68531C0B60107070472E
:100BC000012144F20400FFF767FCFFF7B3FBFFF7D6
:100BD00093FD00202F49C870022008802E48FFF79F
:100BE000C3FB4FF40040FFF74BFC01214802FFF725
:100BF00053FC0020294908600871012048714FF416
:100C0000602088600020C86001200874032301224E
:100C100011462348FFF71CFB20492148FFF7F0FA53
:100C200001211F48FFF7C0FA1D48FFF76DFB00BF09
:100C30001B48FFF7DBFA0028FAD11948FFF774FBCD
:100C400000BF1748FFF7BBFA0028FAD1012114486A
:100C5000FFF7AAFA01211248FFF75BFB19E000BF7A
:100C600002210F48FFF7B9FA0028F9D00C48FFF726
:100C7000B0FA0C49086008460BA102680C48FFF75F
:100C8000D5FD0A210A48FFF713FD022109A0FFF74D
:100C90000FFDE4E700000020000801401C000020D8
:100CA00000240140040000204144433D25346400F9
:100CB000300000200D0A0000D80C000800000020C1
:100CC0001C00000054080008F40C00081C00002060
:100CD0002404000064080008000000000000000078
:100CE00000000000010203040102030406070809D2
:040CF00002040608EC
:0400000508000135B9
:00000001FF
