:020000040800F2
:1000000030050020350100083D0100083F010008CF
:1000100041010008430100084501000800000000FC
:100020000000000000000000000000004701000880
:1000300049010008000000004B0100080508000805
:100040004F0100084F0100084F0100084F01000850
:100050004F0100084F0100084F0100084F01000840
:100060004F0100084F0100084F0100084F01000830
:100070004F0100084F0100084F0100084F01000820
:100080004F0100084F0100084F0100080000000068
:100090000000000000000000000000004F01000808
:1000A0004F0100084F0100084F0100084F010008F0
:1000B0004F0100084F0100084F0100084F010008E0
:1000C0004F0100084F0100084F0100084F010008D0
:1000D0004F01000881080008D50800084F010008FA
:1000E0004F0100084F0100084F0100080000000008
:1000F0000000000000000000000000000000000000
:1001000000000000000000000000000000000000EF
:1001100000000000000000004F0100084F0100082F
:10012000DFF80CD000F04AF800480047C10D000885
:10013000300500200648804706480047FEE7FEE7F6
:10014000FEE7FEE7FEE7FEE7FEE7FEE7FEE7FEE787
:100150001D080008210100082DE9F05F0546002078
:1001600092469B4688460646814640241BE0284628
:1001700041464746224600F042F853465A46C01AC6
:10018000914110D311461846224600F029F82D1A45
:1001900067EB01084F4622460120002100F020F8BD
:1001A00017EB00094E41201EA4F10104DFDC484694
:1001B00031462A464346BDE8F09F0000064C074DF5
:1001C00006E0E06840F0010394E807009847103427
:1001D000AC42F6D3FFF7A8FFBC0E0008DC0E000807
:1001E000202A04DB203A00FA02F1002070479140F7
:1001F000C2F1200320FA03F3194390407047202AEC
:1002000004DB203A21FA02F00021704721FA02F3C0
:10021000D040C2F1200291400843194670470000C7
:1002200010B504460BE02178074800F03BFC641C45
:1002300000BF4021044800F06DFB0028F9D0207871
:100240000028F0D110BD00000044004001B5044971
:100250000098086000BF024800680028FBD108BD74
:10026000000000202DE9F041024600250026002074
:1002700000230024002791F803C00CF00F0591F82B
:1002800003C00CF0100CBCF1000F03D091F802C0B9
:100290004CEA050591F800C0BCF1000F31D014689C
:1002A00000202BE04FF0010C0CFA00F3B1F800C075
:1002B0000CEA03069E4220D183004FF00F0C0CFA8B
:1002C00003F7BC4305FA03FC4CEA040491F803C0AD
:1002D000BCF1280F06D14FF0010C0CFA00FCC2F85B
:1002E00014C00AE091F803C0BCF1480F05D14FF0EB
:1002F000010C0CFA00FCC2F810C0401C0828D1D335
:100300001460B1F800C0BCF1FF0F34DD5468002068
:100310002EE000F1080C4FF0010808FA0CF3B1F8D8
:1003200000C00CEA03069E4221D183004FF00F0C5F
:100330000CFA03F7BC4305FA03FC4CEA040491F8F9
:1003400003C0BCF1280F05D100F1080C08FA0CF825
:10035000C2F8148091F803C0BCF1480F07D100F136
:10036000080C4FF0010808FA0CF8C2F81080401C85
:100370000828CED35460BDE8F08141617047016127
:100380007047000000B587B00121254800F050F902
:100390000420ADF8180003208DF81A0018208DF8FD
:1003A0001B0006A91F48FFF75DFF0820ADF81800E5
:1003B00004208DF81B0006A91A48FFF753FF4FF4DD
:1003C000165002900020ADF80C00ADF80E00ADF80C
:1003D0001000ADF814000C20ADF8120002A912486C
:1003E00000F0F4FA0121104800F088FA012240F2EE
:1003F00025510D4800F0C5FA26208DF80400002094
:100400008DF805008DF8060001208DF8070001A881
:1004100000F094F8262000F085F807B000BD000039
:1004200004000200000801400044004008B501211A
:10043000102000F00DF94FF40070ADF8000010200E
:100440008DF8030003208DF8020069460148FFF78C
:1004500009FF08BD0010014000B587B0012144F23A
:10046000040000F0F5F84FF40070ADF81800032018
:100470008DF81A0018208DF81B0006A91E48FFF7FA
:10048000F1FE4FF48060ADF8180004208DF81B00D9
:1004900006A91948FFF7E6FE4FF416500290002017
:1004A000ADF80C00ADF80E00ADF81000ADF814007A
:1004B0000C20ADF8120002A9104800F087FA0121C3
:1004C0000E4800F01BFA012240F225510B4800F0C3
:1004D00058FA25208DF8040000208DF805008DF8CD
:1004E000060001208DF8070001A800F027F825205C
:1004F00000F018F807B000BD0008014000380140C6
:1005000008B50121042000F0A3F80120ADF8000097
:1005100004208DF8030069460148FFF7A3FE08BDDB
:100520000008014000F01F020121914042099200A1
:1005300002F1E022C2F800117047000070B50021FE
:1005400000230F22C47804B3154C246804F4E0643B
:10055000C4F5E064210AC1F10403CA40447804FAF6
:1005600003F184781440214309010E4C0678A1550B
:10057000047804F01F050124AC4005786D11AD002E
:1005800005F1E025C5F8004109E0047804F01F05F5
:100590000124AC40044D0678761145F8264070BD24
:1005A0000CED00E000E400E080E100E001490862B9
:1005B0007047000000000E420349096841EA8001CB
:1005C000014A116070470000007000400A4800684E
:1005D00040F00400084908600846006840F0020046
:1005E00008600648006840F004000449086000BF45
:1005F00000BF30BF704700000070004010ED00E009
:1006000010B501214FF0C05000F012F8012000F0A9
:1006100009F80120FFF7CAFF0220FFF7CDFFFFF71F
:10062000D5FF10BD0149086070470000A0000E42D0
:1006300029B1064AD2690243044BDA6104E0034A55
:10064000D2698243014BDA6170470000001002401A
:1006500029B1064A92690243044B9A6104E0034AB5
:1006600092698243014B9A6170470000001002407A
:1006700070B5002100230024002200252C4E76684E
:1006800006F00C0121B1042905D0082921D105E08B
:10069000284E066020E0274E06601DE0244E766856
:1006A00006F47013224E766806F48034022606EBB8
:1006B00093431CB9204E5E43066009E01C4EF66A67
:1006C00006F00F06751C1B4EB6FBF5F65E43066082
:1006D00002E0184E066000BF00BF154E766806F0B7
:1006E000F0010909154E725C0668D6404660104E4E
:1006F000766806F4E061090A104E725C4668D640DE
:1007000086600B4E766806F46051C90A0B4E725C27
:100710004668D640C660064E766806F44041890BAE
:10072000074E725CC668B6FBF2F6066170BD00004B
:100730000010024000127A0000093D000400002071
:100740001400002010B500F001F810BD0CB5002019
:10075000019000902A48006840F4803028490860E1
:1007600000BF2748006800F4003000900198401C4A
:100770000190009818B90198B0F5A06FF1D1204808
:10078000006800F4003010B10120009001E000206A
:1007900000900098012831D11948406818494860F4
:1007A0000846406848600846406848600846406817
:1007B00020F47C1048600846406840F49810486077
:1007C0000846006840F08070086000BF0C48006870
:1007D00000F000700028F9D00948406820F00300BC
:1007E000074948600846406840F00200486000BF82
:1007F0000348406800F00C000828F9D10CBD000047
:10080000001002400448006820B103480068401E00
:1008100001490860704700000000002010B514482E
:10082000006840F00100124908600846406811491C
:1008300008400F494860084600680F4908400C49C5
:1008400008600846006820F4802008600846406878
:1008500020F4FE0048604FF41F0088600020C8624A
:10086000FFF770FF4FF000600449086010BD000002
:10087000001002400000FFF8FFFFF6FE08ED00E068
:1008800010B540F22551074800F051F840B1054835
:10089000001D0088C4B22146024800F003F900BFE1
:1008A00010BD00000038014010B504460BE014F8FC
:1008B000011B074800F0F6F800BF4021044800F093
:1008C00029F80028F9D020780028F0D110BD0000C8
:1008D0000038014010B540F22551074800F027F8D4
:1008E00040B10548001D0088C4B22146024800F00E
:1008F000D9F800BF10BD00000044004021B182893A
:1009000042F40052828104E082894DF6FF731A405E
:100910008281704702460020B1F5007F00D100BF00
:1009200013880B400BB1012000E00020704770B528
:100930000246002400230025002040F66A16B1423A
:1009400000D100BFC1F3421501F01F03012606FAD2
:1009500003F3012D02D19689334006E0022D02D126
:10096000168A334001E0968A33400C12012606FABB
:1009700004F41688344013B10CB1012000E00020CB
:1009800070BDF0B50346002400260025002040F687
:100990006A17B94200D100BF1846C1F3421401F0F2
:1009A0001F06012707FA06F5012C01D10C3004E0DF
:1009B000022C01D1103000E014301AB107682F4327
:1009C000076002E00768AF430760F0BD2DE9F0471C
:1009D00086B005460E460024A24600BFA146002769
:1009E000B08900B100BF2F462C8A4CF6FF7004403E
:1009F000F08804432C82AC894EF6F3100440B08892
:100A000031890843718908430443AC81AC8A4FF6AD
:100A1000FF400440B0890443AC8201A8FFF728FEE0
:100A20001F48874202D1DDF810A001E0DDF80CA0DC
:100A3000A88900F4004040B10AEBCA0000EB0A109C
:100A400031684900B0FBF1F807E00AEBCA0000EB9F
:100A50000A1031688900B0FBF1F86420B8FBF0F0AF
:100A600004012009642101FB1089A88900F40040D9
:100A700040B1322000EBC900B0FBF1F000F00700FC
:100A8000044308E0322000EB09106421B0FBF1F0D0
:100A900000F00F0004432C8106B0BDE8F087000091
:100AA00000380140C1F30802828070470FB4084B40
:100AB00010B504A902AA039800F01CF8044602A984
:100AC000002000F077F9204610BC5DF814FB000010
:100AD000B50D000802E008C8121F08C1002AFAD1AB
:100AE00070477047002001E001C1121F002AFBD1AE
:100AF000704700002DE9FF4F8DB09B460F4604461E
:100B0000002606E025280BD05A460F999047641C12
:100B1000761C20780028F5D111B03046BDE8F08F62
:100B20000025A8460122984900E0054314F8013F3A
:100B3000203B02FA03F00842F7D120782E2817D183
:100B400014F8010F45F004052A280ED06FF02F028B
:100B50002078A0F1300109290AD808EB880102EBBE
:100B6000410100EB0108641CF2E757F8048B641C98
:100B700020786C280DD004DC4C2812D06A2811D1C2
:100B800004E074280DD07A280CD10AE045F4001551
:100B900007E0617845F48015814202D1641C05F5B7
:100BA0008015641C2278692A45D008DC002AB3D05D
:100BB000582A69D0632A10D0642A08D13BE0702AF1
:100BC00067D0732A13D0752A5CD0782A5CD010467F
:100BD0005A460F999047761CD3E017F8040B8DF80E
:100BE000000000208DF80100E946012003E057F8DD
:100BF000049B4FF0FF3069074FF0000501D40AE075
:100C00006D1C45450DDA8542FADB19F805100029FF
:100C1000F6D106E06D1C8542FCDB19F805100029B1
:100C2000F8D12E4404E019F8010B5A460F99904769
:100C30006D1EF8D2A5E00A200021CDE90801C5F318
:100C4000025002280DD001CFC117031E71F100031D
:100C50000DDA4FF0000CD0EB0C006CEB01012D23F2
:100C600008E0FF1D27F00707F7E80201EDE72B0575
:100C700004D52B238DF8283001233BE0EB0739D036
:100C80002023F7E70A2000E010200021CDE9080129
:100C900007E01020002145F00405CDE908014FF0E0
:100CA0000808C5F3025002280FD001CF00214FF0F1
:100CB000000A2B071FD5702A0DD0DDE908C38CF080
:100CC000100C5CEA030C0CD015E0FF1D27F00707A1
:100CD000F7E80201EBE740228DF828204FF0010AE7
:100CE0000BE050EA010306D030238DF828308DF850
:100CF000292002239A46582A04D024A20DF1200963
:100D00000B9209E026A2F9E7DDE90823FFF724FAB0
:100D10000B9B9B5C09F8013D50EA0102F4D1ADEB5D
:100D2000090020300890680701D44FF001080899A5
:100D3000884502DDA8EB010000E000208046002588
:100D400006E00AA85A46405D0F9990476D1C761C34
:100D50005545F6DB04E030205A460F999047761C43
:100D6000B8F10001A8F10108F5DC05E019F8010B64
:100D70005A460F999047761C0899481E08900029FA
:100D8000F4DC641CC5E60000092801003031323370
:100D900034353637383961626364656600000000B7
:100DA00030313233343536373839414243444546A1
:100DB000000000000A68531C0B60107070470000B0
:100DC0001CB5FFF749FBFFF7DDFAFFF72FFBFFF735
:100DD00097FBFFF723FD2A4800684FF47A72B0FBB7
:100DE000F2F1481EB0F1807F01D301201BE0481EC4
:100DF0004FF0E022506150170F22002807DA130746
:100E00001D0E204B00F00F04241F1D5503E0130797
:100E10001C0E1D4B1C5400BF00204FF0E0229061BF
:100E200007201061002008B100BFFEE717480068E6
:100E30001649091F0968CDE90010144808380368ED
:100E400012481038028812A11A48FFF72FFE1948DD
:100E5000FFF72AFD1748FFF7E3F90FE04FF40071A1
:100E60001548FFF78CFA4FF47A70FFF7EFF94FF45B
:100E700000711148FFF781FAFFF7C2FBEEE70000AF
:100E80001800002018ED00E000E400E0F0F7FF1F7C
:100E90000A0A466C6173682053697A65203A2025F6
:100EA000644B620A554944203A2025582558255854
:100EB0000A0000002C00002000100140DC0E000899
:100EC000000000202C000000D40A0008080F0008D1
:100ED0002C00002004050000E40A000800000000C7
:100EE00000000000010203040102030406070809D0
:100EF0000204060800366E01000000000000000039
:080F00000102030406070809C1
:0400000508000135B9
:00000001FF
