:020000040800F2
:1000000010040020350100083D0100083F010008F0
:1000100041010008430100084501000800000000FC
:100020000000000000000000000000004701000880
:1000300049010008000000004B0100084D010008C4
:100040004F0100084F0100084F0100084F01000850
:100050004F0100084F0100084F0100084F01000840
:100060004F0100084F0100084F0100084F01000830
:100070004F0100084F0100084F0100084F01000820
:100080004F0100084F0100084F0100080000000068
:100090000000000000000000000000004F01000808
:1000A0004F0100084F0100084F0100084F010008F0
:1000B0004F0100084F0100084F0100084F010008E0
:1000C0004F0100084F0100084F0100084F010008D0
:1000D0004F0100084F0100084F0100084F010008C0
:1000E0004F0100084F0100084F0100080000000008
:1000F0000000000000000000000000000000000000
:1001000000000000000000000000000000000000EF
:1001100000000000000000004F0100084F0100082F
:10012000DFF80CD000F018F800480047FD03000885
:10013000100400200648804706480047FEE7FEE717
:10014000FEE7FEE7FEE7FEE7FEE7FEE7FEE7FEE787
:100150007903000821010008064C074D06E0E0681D
:1001600040F0010394E8070098471034AC42F6D3FE
:10017000FFF7DAFF88040008A80400082DE9F04121
:10018000024600250026002000230024002791F8C5
:1001900003C00CF00F0591F803C00CF0100CBCF17B
:1001A000000F03D091F802C04CEA050591F800C099
:1001B000BCF1000F31D0146800202BE04FF0010C8F
:1001C0000CFA00F3B1F800C00CEA03069E4220D1FD
:1001D00083004FF00F0C0CFA03F7BC4305FA03FC45
:1001E0004CEA040491F803C0BCF1280F06D14FF08B
:1001F000010C0CFA00FCC2F814C00AE091F803C02C
:10020000BCF1480F05D14FF0010C0CFA00FCC2F80C
:1002100010C0401C0828D1D31460B1F800C0BCF154
:10022000FF0F34DD546800202EE000F1080C4FF081
:10023000010808FA0CF3B1F800C00CEA03069E426C
:1002400021D183004FF00F0C0CFA03F7BC4305FAE1
:1002500003FC4CEA040491F803C0BCF1280F05D15B
:1002600000F1080C08FA0CF8C2F8148091F803C0E9
:10027000BCF1480F07D100F1080C4FF0010808FA53
:100280000CF8C2F81080401C0828CED35460BDE89A
:10029000F081C1607047000029B1064A92690243AB
:1002A000044B9A6104E0034A92698243014B9A61CC
:1002B000704700000010024010B500F001F810BDBA
:1002C0000CB50020019000902A48006840F480306E
:1002D0002849086000BF2748006800F400300090FB
:1002E0000198401C0190009818B90198B0F5A06FD2
:1002F000F1D12048006800F4003010B101200090D6
:1003000001E0002000900098012831D11948406890
:100310001849486008464068486008464068486098
:100320000846406820F47C1048600846406840F465
:10033000981048600846006840F08070086000BF70
:100340000C48006800F000700028F9D009484068A7
:1003500020F00300074948600846406840F002006A
:10036000486000BF0348406800F00C000828F9D13D
:100370000CBD00000010024010B51448006840F0A9
:1003800001001249086008464068114908400F49B9
:100390004860084600680F4908400C490860084654
:1003A000006820F4802008600846406820F4FE00C1
:1003B00048604FF41F0088600020C862FFF77CFF90
:1003C0004FF000600449086010BD000000100240BA
:1003D0000000FFF8FFFFF6FE08ED00E002E008C8AD
:1003E000121F08C1002AFAD170477047002001E0AF
:1003F00001C1121F002AFBD170470000012110200B
:10040000FFF74AFF03201B4988701020C8704FF483
:100410007F4008801848FFF7B1FE29E017480068C0
:100420004FF6FF7202EA00211348FFF732FF13482C
:100430000068401C1149086000201149086004E070
:100440000F480068401C0E4908600D4800680D49BF
:100450008842F5DB00200A49086004E0084800688B
:10046000401C074908600648006806498842F5DBD9
:10047000D4E7000000000020001001400800002028
:100480000400002040420F00A804000800000020E3
:100490000C000000DC030008B40400080C0000207D
:1004A00004040000EC03000800000000000000004D
:0404B0000000000048
:0400000508000135B9
:00000001FF
