:020000040800F2
:1000000058040020350100083D0100083F010008A8
:1000100041010008430100084501000800000000FC
:100020000000000000000000000000004701000880
:1000300049010008000000004B0100084D010008C4
:100040004F0100084F0100084F0100084F01000850
:100050004F0100084F0100084F0100084F01000840
:100060004F0100084F0100084F0100084F01000830
:100070004F0100084F0100084F0100084F01000820
:100080004F0100084F0100084F0100080000000068
:100090000000000000000000000000004F01000808
:1000A0004F0100084F0100084F0100084F010008F0
:1000B0004F010008910700084F0100084F01000898
:1000C0004F0100084F0100084F0100084F010008D0
:1000D0004F0100084D0D00084F0100084F010008B6
:1000E0004F0100084F0100084F0100080000000008
:1000F0000000000000000000000000000000000000
:1001000000000000000000000000000000000000EF
:1001100000000000000000004F0100084F0100082F
:10012000DFF80CD000F018F8004800478D110008E7
:10013000580400200648804706480047FEE7FEE7CF
:10014000FEE7FEE7FEE7FEE7FEE7FEE7FEE7FEE787
:10015000ED04000821010008064C074D06E0E068A8
:1001600040F0010394E8070098471034AC42F6D3FE
:10017000FFF7DAFF60120008801200082DE9F04155
:10018000024600250026002000230024002791F8C5
:1001900003C00CF00F0591F803C00CF0100CBCF17B
:1001A000000F03D091F802C04CEA050591F800C099
:1001B000BCF1000F31D0146800202BE04FF0010C8F
:1001C0000CFA00F3B1F800C00CEA03069E4220D1FD
:1001D00083004FF00F0C0CFA03F7BC4305FA03FC45
:1001E0004CEA040491F803C0BCF1280F06D14FF08B
:1001F000010C0CFA00FCC2F814C00AE091F803C02C
:10020000BCF1480F05D14FF0010C0CFA00FCC2F80C
:1002100010C0401C0828D1D31460B1F800C0BCF154
:10022000FF0F34DD546800202EE000F1080C4FF081
:10023000010808FA0CF3B1F800C00CEA03069E426C
:1002400021D183004FF00F0C0CFA03F7BC4305FAE1
:1002500003FC4CEA040491F803C0BCF1280F05D15B
:1002600000F1080C08FA0CF8C2F8148091F803C0E9
:10027000BCF1480F07D100F1080C4FF0010808FA53
:100280000CF8C2F81080401C0828CED35460BDE89A
:10029000F081000070B5002100230F22C47804B360
:1002A000154C246804F4E064C4F5E064210AC1F14B
:1002B0000403CA40447804FA03F1847814402143CB
:1002C00009010E4C0678A155047804F01F0501249D
:1002D000AC4005786D11AD0005F1E025C5F8004191
:1002E00009E0047804F01F050124AC40044D0678B1
:1002F000761145F8264070BD0CED00E000E400E00A
:1003000080E100E002490143024A116070470000A9
:100310000000FA050CED00E029B1064AD26902435B
:10032000044BDA6104E0034AD2698243014BDA618B
:10033000704700000010024029B1064A926902434A
:10034000044B9A6104E0034A92698243014B9A612B
:10035000704700000010024070B500210023002407
:10036000002200252C4E766806F00C0121B10429EC
:1003700005D0082921D105E0284E066020E0274E4F
:1003800006601DE0244E766806F47013224E7668EF
:1003900006F48034022606EB93431CB9204E5E43DC
:1003A000066009E01C4EF66A06F00F06751C1B4E2F
:1003B000B6FBF5F65E43066002E0184E066000BF2D
:1003C00000BF154E766806F0F0010909154E725C03
:1003D0000668D6404660104E766806F4E061090A69
:1003E000104E725C4668D64086600B4E766806F406
:1003F0006051C90A0B4E725C4668D640C660064E14
:10040000766806F44041890B074E725CC668B6FBFD
:10041000F2F6066170BD00000010024000127A0082
:1004200000093D002D0000203D00002010B500F027
:1004300001F810BD0CB50020019000902A4800681A
:1004400040F480302849086000BF2748006800F465
:10045000003000900198401C0190009818B9019854
:10046000B0F5A06FF1D12048006800F4003010B161
:100470000120009001E0002000900098012831D177
:10048000194840681849486008464068486008466E
:10049000406848600846406820F47C104860084680
:1004A000406840F4981048600846006840F080704A
:1004B000086000BF0C48006800F000700028F9D008
:1004C0000948406820F00300074948600846406832
:1004D00040F00200486000BF0348406800F00C0094
:1004E0000828F9D10CBD00000010024010B51448D6
:1004F000006840F001001249086008464068114950
:1005000008400F494860084600680F4908400C49F8
:1005100008600846006820F48020086008464068AB
:1005200020F4FE0048604FF41F0088600020C8627D
:10053000FFF77CFF4FF000600449086010BD000029
:10054000001002400000FFF8FFFFF6FE08ED00E09B
:10055000F0B50C46154600220021068C4FF6FE77BA
:100560003E400684028B018C4FF60C7632407E1C96
:1005700006EA03162E433243104EB0420ED0104E00
:10058000B0420BD0B0F1804F08D00E4EB04205D033
:100590000D4EB04202D00D4EB04206D14FF6FD7660
:1005A000314044F00106314305E04FF6F576314025
:1005B00044F00106314302830184F0BD002C014068
:1005C000003401400004004000080040000C0040DE
:1005D000F0B50C461546002200210026078C4FF688
:1005E000EF7C07EA0C070784028B018C4FF6FF773C
:1005F00007EA041640F6FF473A404FF6FF7707EA4E
:1006000003373A434FF6FF7707EA05273A43114F7E
:10061000B8420ED0104FB8420BD0B0F1804F08D086
:100620000E4FB84205D00E4FB84202D00D4FB8421F
:1006300006D14FF6DF77394046F01007394305E021
:100640004FF65F77394044F0100739430283018445
:10065000F0BD0000002C01400034014000040040C7
:1006600000080040000C0040F0B50C461546002282
:1006700000210026078C4FF6FF6C07EA0C07078461
:10068000828B018C4FF6FF7707EA04264FF60C7732
:100690003A404FF6FF7707EA03172F433A43114FCB
:1006A000B8420ED0104FB8420BD0B0F1804F08D0F6
:1006B0000E4FB84205D00E4FB84202D00D4FB8428F
:1006C00006D14FF6FF57394046F48077394305E0AD
:1006D0004FF2FF57394044F48077394382830184D5
:1006E000F0BD0000002C0140003401400004004037
:1006F00000080040000C0040F0B50C4615460022F2
:1007000000210026078C4EF6FF7C07EA0C070784C1
:10071000828B018C4FF6FF7707EA043640F6FF47DD
:100720003A404FF6FF7707EA05273A434FF6FF773F
:1007300007EA03373A43114FB8420ED0104FB84280
:100740000BD0B0F1804F08D00E4FB84205D00E4FFD
:10075000B84202D00D4FB84206D14DF6FF7739406E
:1007600046F48057394305E047F6FF57394044F4D3
:100770008057394382830184F0BD0000002C014082
:10078000003401400004004000080040000C00401C
:100790005A48008800F0020038B3584810300088EA
:1007A00000F0020080B1554824300088544909887F
:1007B000401A5449086051481030008820F0020067
:1007C0004E49103108800CE04C48243000884C49D8
:1007D00008804A481030008840F002004749103134
:1007E00008804FF6FD70454908804448008800F0B5
:1007F000040038B341481030008800F0200080B178
:100800003E482830008840490988401A3F4908601E
:100810003A481030008820F0200038491031088014
:100820000CE03648283000883749088033481030BB
:10083000008840F020003149103108804FF6FB70ED
:100840002E4908802D48008800F0080038B32B4856
:100850001030008800F4007080B128482C300088E7
:100860002B490988401A2B49086024481030008819
:1008700020F400702149103108800CE01F482C3012
:100880000088234908801D481030008840F400701B
:100890001A49103108804FF6F77018490880174838
:1008A000008800F0100038B314481030008800F4BD
:1008B000005080B111483030008817490988401A2B
:1008C000164908600D481030008820F400500B498C
:1008D000103108800CE00948303000880E4908804B
:1008E00006481030008840F4005004491031088058
:1008F0004FF6EF7001490880704700001004004077
:1009000024000020140000202600002018000020F1
:10091000280000201C0000202A00002020000020C9
:1009200021B1028842F00102028004E002884FF601
:10093000FE731A400280704770B505460C46244885
:1009400085420ED0234885420BD0B5F1804F08D0A8
:100950002148854205D02148854202D02048854261
:1009600000D100E000BF208850B92389A2886188A7
:100970002846FFF7EDFDE188284600F069F925E0FB
:10098000208804280AD12389A28861882846FFF795
:100990001FFEE188284600F064F917E02088082847
:1009A0000AD12389A28861882846FFF75DFEE18885
:1009B000284600F063F909E02389A2886188284667
:1009C000FFF79AFEE188284600F061F970BD00004B
:1009D000002C0140003401400004004000080040A9
:1009E000000C00401AB183890B43838102E08389A4
:1009F0008B4383817047000070B5002400220023E0
:100A0000058C4FF6FE7635400584028C8388048B76
:100A10004FF68F752C40B51E2C400D882C43751E4B
:100A20002A400D892A434D882A43144DA8420BD0F1
:100A3000134DA84208D0134DA84205D0124DA8422C
:100A400002D0124DA84213D14FF6F7752A404D89B6
:100A50002A434FF6FB752A408D882A434FF6FF65DF
:100A60002B404FF6FF552B408D892B43CD892B43CF
:100A700083800483CD888586028470BD002C01406C
:100A80000034014000400140004401400048014062
:100A900070B5002400220023058C4FF6EF76354018
:100AA0000584028C8388048B48F6FF752C404FF632
:100AB000FF452C400D884FF6FF7606EA05252C43AE
:100AC0004FF6DF752A400D8906EA05152A434D8841
:100AD00006EA05152A43154DA84202D0144DA84236
:100AE0001DD14FF67F752A404D894FF6FF7606EAF5
:100AF00005152A434FF6BF752A408D8806EA05156D
:100B00002A434FF6FF352B404FF2FF752B408D895E
:100B100006EA85052B43CD8906EA85052B438380AC
:100B20000483CD880587028470BD0000002C01403D
:100B30000034014070B5002400220023058C4FF6DC
:100B4000FF6635400584028C8388848B4FF68F7551
:100B50002C404FF6FC752C400D882C434FF6FF556A
:100B60002A400D894FF6FF7606EA05252A434D886F
:100B700006EA05252A43154DA84202D0144DA84285
:100B80001DD14FF2FF752A404D894FF6FF7606EAD8
:100B900005252A434FF6FF352A408D8806EA0525AC
:100BA0002A434EF6FF752B404DF6FF752B408D897D
:100BB00006EA05152B43CD8906EA05152B438380EC
:100BC0008483CD888587028470BD0000002C01409D
:100BD0000034014070B5002200230024058C4EF63D
:100BE000FF7635400584038C8488828B48F6FF7538
:100BF0002A404FF6FF452A400D884FF6FF7606EA59
:100C000005252A434DF6FF752B400D8906EA05356B
:100C10002B434D8806EA05352B430B4DA84202D0E5
:100C20000A4DA84208D14BF6FF752C408D894FF62E
:100C3000FF7606EA85152C4384808283CD88A0F850
:100C40004050038470BD0000002C0140003401407E
:100C5000028B4FF6F3731A400283028B0A4302831E
:100C60007047028B4FF2FF331A400283028B4FF61C
:100C7000FF7303EA01231A4302837047828B4FF606
:100C8000F3731A408283828B0A4382837047828B7C
:100C90004FF2FF331A408283828B4FF6FF7303EAD1
:100CA00001231A4382837047002202881D4B984219
:100CB0000ED01D4B98420BD0B0F1804F08D01B4B8B
:100CC000984205D01A4B984202D01A4B984204D150
:100CD0004FF68F731A404B881A43174B984207D030
:100CE000164B984204D04FF6FF431A40CB881A4364
:100CF00002808B8883850B8803850A4B98420BD032
:100D0000094B984208D00E4B984205D00D4B9842A3
:100D100002D00D4B984201D10B7A038601238382C6
:100D200070470000002C01400034014000040040E6
:100D300000080040000C004000100040001400407B
:100D400000400140004401400048014010B540F21D
:100D50002551104800F030F8D8B10E48001D008829
:100D6000C4B20A2C0DD00C4800780C2809DA0B48C4
:100D700009490978445408480078401C064908701D
:100D800006E00020044908700449024800F0D4F845
:100D900000BF10BD003801402C000020440000209E
:100DA00021B1828942F40052828104E082894DF6A9
:100DB000FF731A408281704770B5024600240023F9
:100DC0000025002040F66A16B14200D100BFC1F3F1
:100DD000421501F01F03012606FA03F3012D02D18B
:100DE0009689334006E0022D02D1168A334001E095
:100DF000968A33400C12012606FA04F41688344011
:100E000013B10CB1012000E0002070BDF0B5034625
:100E1000002400260025002040F66A17B94200D1C0
:100E200000BF1846C1F3421401F01F06012707FA5C
:100E300006F5012C01D10C3004E0022C01D1103058
:100E400000E014301AB107682F43076002E007681A
:100E5000AF430760F0BD00002DE9F04786B00546BE
:100E60000E460024A24600BFA1460027B08900B16B
:100E700000BF2F462C8A4CF6FF700440F0880443D4
:100E80002C82AC894EF6F3100440B08831890843B7
:100E9000718908430443AC81AC8A4FF6FF4004409B
:100EA000B0890443AC8201A8FFF756FA1F48874275
:100EB00002D1DDF810A001E0DDF80CA0A88900F453
:100EC000004040B10AEBCA0000EB0A10316849004B
:100ED000B0FBF1F807E00AEBCA0000EB0A1031683A
:100EE0008900B0FBF1F86420B8FBF0F004012009A0
:100EF000642101FB1089A88900F4004040B1322030
:100F000000EBC900B0FBF1F000F00700044308E07B
:100F1000322000EB09106421B0FBF1F000F00F006B
:100F200004432C8106B0BDE8F08700000038014082
:100F3000C1F308028280704770B505460C460BE08D
:100F400000BF288800F040000028FAD02178284609
:100F5000FFF7EEFF14F8010B20780028F0D170BDE8
:100F600002E008C8121F08C1002AFAD17047704772
:100F7000002001E001C1121F002AFBD170470000D0
:100F800000B58DB001210320FFF7C6F901211D2016
:100F9000FFF7D2F918208DF8330003208DF83200C6
:100FA0000F20ADF830000CA94B48FFF7E7F80420FC
:100FB0008DF83300C020ADF830000CA94648FFF78B
:100FC000DDF80320ADF830000CA94448FFF7D6F84F
:100FD00044F61F60ADF828001720ADF8240009A9D9
:100FE0004FF08040FFF760FE6020ADF81400012054
:100FF000ADF8160005A98007FFF7FEFC05A94FF024
:101000008040FFF745FD05A94FF08040FFF792FDB6
:1010100005A94FF08040FFF7DDFD01218807FFF7AC
:101020007FFC4FF47A70C106888640F235500887FD
:1010300040F2826088874FF4FA60294908804FF6B1
:10104000FF70ADF828001720ADF8240009A9254845
:10105000FFF72AFE0020ADF80A000120ADF80C00D1
:101060000320ADF810000020ADF8080002A91D48CB
:10107000FFF762FC0420ADF8080002A91948FFF749
:101080005BFC0820ADF8080002A91648FFF754FCE5
:101090000C20ADF8080002A91248FFF74DFC012210
:1010A0001E211048FFF79EFC01210E48FFF738FC77
:1010B0004FF4C060FFF726F901208DF807008DF886
:1010C00005001D208DF8040000208DF8060001A801
:1010D000FFF7E0F80DB000BD00080140000C014032
:1010E000400000400004004000B587B001218803A3
:1010F000FFF722F901210420FFF71EF94FF40070D9
:10110000ADF8180018208DF81B0003208DF81A0088
:1011100006A91C48FFF732F84FF48060ADF81800BC
:1011200004208DF81B0006A91648FFF727F84FF496
:10113000165002900020ADF80C00ADF80E00ADF88E
:101140001000ADF814000C20ADF8120002A90E48F2
:10115000FFF782FE012240F225510B48FFF756FEB1
:1011600025208DF8040000208DF8060001208DF860
:10117000070001A8FFF78EF801210348FFF710FED2
:1011800007B000BD0008014000380140FFF7F8FE3D
:10119000FFF7AAFF53E000BF2948008800F0400095
:1011A0000028F9D04FF08040808E404225490860E9
:1011B0000846008881B22248FFF7BAFE22A12048E3
:1011C000FFF7BAFE4FF08040008F40421F49086091
:1011D0000846008881B21A48FFF7AAFE4FF0804007
:1011E000808F40421A49086017A11548FFF7A4FEF6
:1011F0001748008881B21248FFF79AFE12A11048E2
:10120000FFF79AFE134800884042134908600EA178
:101210000B48FFF791FE1048008881B20848FFF79D
:1012200087FE00200D49086004E00C480068401C5F
:101230000A49086009480068B0F57A7FF5DBAAE73B
:1012400000380140000000200D0A000004000020CA
:1012500008000020400000400C000020100000208A
:10126000801200080000002044000000600F000809
:10127000C41200084400002014040000700F00088D
:10128000000000000000000000000000000000005E
:10129000000000000000000000000000000000004E
:1012A000000000000000000000000000000000003E
:1012B00000010203040102030406070809020406F0
:0412C0000800000022
:0400000508000135B9
:00000001FF
